{
  "transactions": [
    {
      "hash": "0x0633bad7a6f0d17d226d3b61c4e69778e7a8323b5e9095bb6c44de8462deee66",
      "transactionType": "CALL",
      "contractName": null,
      "contractAddress": "0x1c7d4b196cb0c7b01d743fbc6116a902379c7238",
      "function": "approve(address,uint256)",
      "arguments": [
        "0x000000000022D473030F116dDEE9F6B43aC78BA3",
        "115792089237316195423570985008687907853269984665640564039457584007913129639935"
      ],
      "transaction": {
        "from": "0xb70649baf7a93eeb95e3946b3a82f8f312477d2b",
        "to": "0x1c7d4b196cb0c7b01d743fbc6116a902379c7238",
        "gas": "0xdca8",
        "value": "0x0",
        "input": "0x095ea7b3000000000000000000000000000000000022d473030f116ddee9f6b43ac78ba3ffffffffffffffffffffffffffffffffffffffffffffffffffffffffffffffff",
        "nonce": "0x94",
        "chainId": "0xaa36a7"
      },
      "additionalContracts": [],
      "isFixedGasLimit": false
    },
    {
      "hash": "0x704989a93ec28b1bbace0b7501befcd9e5efd0a140ceb2403a88c02b07131e59",
      "transactionType": "CALL",
      "contractName": null,
      "contractAddress": "0x000000000022d473030f116ddee9f6b43ac78ba3",
      "function": "approve(address,address,uint160,uint48)",
      "arguments": [
        "0x1c7D4B196Cb0C7B01d743Fbc6116a902379C7238",
        "0x429ba70129df741B2Ca2a85BC3A2a3328e5c09b4",
        "1461501637330902918203684832716283019655932542975",
        "281474976710655"
      ],
      "transaction": {
        "from": "0xb70649baf7a93eeb95e3946b3a82f8f312477d2b",
        "to": "0x000000000022d473030f116ddee9f6b43ac78ba3",
        "gas": "0x96a0",
        "value": "0x0",
        "input": "0x87517c450000000000000000000000001c7d4b196cb0c7b01d743fbc6116a902379c7238000000000000000000000000429ba70129df741b2ca2a85bc3a2a3328e5c09b4000000000000000000000000ffffffffffffffffffffffffffffffffffffffff0000000000000000000000000000000000000000000000000000ffffffffffff",
        "nonce": "0x95",
        "chainId": "0xaa36a7"
      },
      "additionalContracts": [],
      "isFixedGasLimit": false
    },
    {
      "hash": "0x9e530ca8b5e018c49ea0b459482850eb3b03f60d308ec4247fb79cba1864864d",
      "transactionType": "CALL",
      "contractName": null,
      "contractAddress": "0xb094011eef8e7188cc224a4c9ece9d61f500c68e",
      "function": "approve(address,uint256)",
      "arguments": [
        "0x000000000022D473030F116dDEE9F6B43aC78BA3",
        "115792089237316195423570985008687907853269984665640564039457584007913129639935"
      ],
      "transaction": {
        "from": "0xb70649baf7a93eeb95e3946b3a82f8f312477d2b",
        "to": "0xb094011eef8e7188cc224a4c9ece9d61f500c68e",
        "gas": "0x9330",
        "value": "0x0",
        "input": "0x095ea7b3000000000000000000000000000000000022d473030f116ddee9f6b43ac78ba3ffffffffffffffffffffffffffffffffffffffffffffffffffffffffffffffff",
        "nonce": "0x96",
        "chainId": "0xaa36a7"
      },
      "additionalContracts": [],
      "isFixedGasLimit": false
    },
    {
      "hash": "0xe2e9fad845ec854a7756ad644b210dce1807c91aa2c95874c053b6cf68cad002",
      "transactionType": "CALL",
      "contractName": null,
      "contractAddress": "0x000000000022d473030f116ddee9f6b43ac78ba3",
      "function": "approve(address,address,uint160,uint48)",
      "arguments": [
        "0xB094011EEF8E7188cc224a4C9eCe9D61f500C68e",
        "0x429ba70129df741B2Ca2a85BC3A2a3328e5c09b4",
        "1461501637330902918203684832716283019655932542975",
        "281474976710655"
      ],
      "transaction": {
        "from": "0xb70649baf7a93eeb95e3946b3a82f8f312477d2b",
        "to": "0x000000000022d473030f116ddee9f6b43ac78ba3",
        "gas": "0x9f6c",
        "value": "0x0",
        "input": "0x87517c45000000000000000000000000b094011eef8e7188cc224a4c9ece9d61f500c68e000000000000000000000000429ba70129df741b2ca2a85bc3a2a3328e5c09b4000000000000000000000000ffffffffffffffffffffffffffffffffffffffff0000000000000000000000000000000000000000000000000000ffffffffffff",
        "nonce": "0x97",
        "chainId": "0xaa36a7"
      },
      "additionalContracts": [],
      "isFixedGasLimit": false
    },
    {
      "hash": "0x6725664ea167c9338390abdab26399811b9bd8eb53c0447c6123af26d9c460f9",
      "transactionType": "CALL",
      "contractName": null,
      "contractAddress": "0x429ba70129df741b2ca2a85bc3a2a3328e5c09b4",
      "function": "multicall(bytes[])",
      "arguments": [
        "[0xdd46508f00000000000000000000000000000000000000000000000000000000000000400000000000000000000000000000000000000000000000000000000068cdff480000000000000000000000000000000000000000000000000000000000000400000000000000000000000000000000000000000000000000000000000000004000000000000000000000000000000000000000000000000000000000000000800000000000000000000000000000000000000000000000000000000000000004020d14140000000000000000000000000000000000000000000000000000000000000000000000000000000000000000000000000000000000000000000000040000000000000000000000000000000000000000000000000000000000000080000000000000000000000000000000000000000000000000000000000000024000000000000000000000000000000000000000000000000000000000000002a0000000000000000000000000000000000000000000000000000000000000030000000000000000000000000000000000000000000000000000000000000001a00000000000000000000000001c7d4b196cb0c7b01d743fbc6116a902379c7238000000000000000000000000b094011eef8e7188cc224a4c9ece9d61f500c68e0000000000000000000000000000000000000000000000000000000000000bb8000000000000000000000000000000000000000000000000000000000000003c0000000000000000000000000fe10e0a3ad1ffddcf79b5bdbf011c11e6e38ac0ffffffffffffffffffffffffffffffffffffffffffffffffffffffffffff5038000000000000000000000000000000000000000000000000000000000000afc80000000000000000000000000000000000000000000000000000000000ffd9f50000000000000000000000000000000000000000000000000000000000e4e1c1000000000000000000000000000000000000000000000000d02ab486cedc0001000000000000000000000000b70649baf7a93eeb95e3946b3a82f8f312477d2b0000000000000000000000000000000000000000000000000000000000000180000000000000000000000000000000000000000000000000000000000000000000000000000000000000000000000000000000000000000000000000000000400000000000000000000000001c7d4b196cb0c7b01d743fbc6116a902379c7238000000000000000000000000b094011eef8e7188cc224a4c9ece9d61f500c68e00000000000000000000000000000000000000000000000000000000000000400000000000000000000000001c7d4b196cb0c7b01d743fbc6116a902379c7238000000000000000000000000b70649baf7a93eeb95e3946b3a82f8f312477d2b0000000000000000000000000000000000000000000000000000000000000040000000000000000000000000b094011eef8e7188cc224a4c9ece9d61f500c68e000000000000000000000000b70649baf7a93eeb95e3946b3a82f8f312477d2b]"
      ],
      "transaction": {
        "from": "0xb70649baf7a93eeb95e3946b3a82f8f312477d2b",
        "to": "0x429ba70129df741b2ca2a85bc3a2a3328e5c09b4",
        "gas": "0x5b31a",
        "value": "0x0",
        "input": "0xac9650d80000000000000000000000000000000000000000000000000000000000000020000000000000000000000000000000000000000000000000000000000000000100000000000000000000000000000000000000000000000000000000000000200000000000000000000000000000000000000000000000000000000000000464dd46508f00000000000000000000000000000000000000000000000000000000000000400000000000000000000000000000000000000000000000000000000068cdff480000000000000000000000000000000000000000000000000000000000000400000000000000000000000000000000000000000000000000000000000000004000000000000000000000000000000000000000000000000000000000000000800000000000000000000000000000000000000000000000000000000000000004020d14140000000000000000000000000000000000000000000000000000000000000000000000000000000000000000000000000000000000000000000000040000000000000000000000000000000000000000000000000000000000000080000000000000000000000000000000000000000000000000000000000000024000000000000000000000000000000000000000000000000000000000000002a0000000000000000000000000000000000000000000000000000000000000030000000000000000000000000000000000000000000000000000000000000001a00000000000000000000000001c7d4b196cb0c7b01d743fbc6116a902379c7238000000000000000000000000b094011eef8e7188cc224a4c9ece9d61f500c68e0000000000000000000000000000000000000000000000000000000000000bb8000000000000000000000000000000000000000000000000000000000000003c0000000000000000000000000fe10e0a3ad1ffddcf79b5bdbf011c11e6e38ac0ffffffffffffffffffffffffffffffffffffffffffffffffffffffffffff5038000000000000000000000000000000000000000000000000000000000000afc80000000000000000000000000000000000000000000000000000000000ffd9f50000000000000000000000000000000000000000000000000000000000e4e1c1000000000000000000000000000000000000000000000000d02ab486cedc0001000000000000000000000000b70649baf7a93eeb95e3946b3a82f8f312477d2b0000000000000000000000000000000000000000000000000000000000000180000000000000000000000000000000000000000000000000000000000000000000000000000000000000000000000000000000000000000000000000000000400000000000000000000000001c7d4b196cb0c7b01d743fbc6116a902379c7238000000000000000000000000b094011eef8e7188cc224a4c9ece9d61f500c68e00000000000000000000000000000000000000000000000000000000000000400000000000000000000000001c7d4b196cb0c7b01d743fbc6116a902379c7238000000000000000000000000b70649baf7a93eeb95e3946b3a82f8f312477d2b0000000000000000000000000000000000000000000000000000000000000040000000000000000000000000b094011eef8e7188cc224a4c9ece9d61f500c68e000000000000000000000000b70649baf7a93eeb95e3946b3a82f8f312477d2b00000000000000000000000000000000000000000000000000000000",
        "nonce": "0x98",
        "chainId": "0xaa36a7"
      },
      "additionalContracts": [],
      "isFixedGasLimit": false
    }
  ],
  "receipts": [
    {
      "status": "0x1",
      "cumulativeGasUsed": "0xc55fd6",
      "logs": [
        {
          "address": "0x1c7d4b196cb0c7b01d743fbc6116a902379c7238",
          "topics": [
            "0x8c5be1e5ebec7d5bd14f71427d1e84f3dd0314c0f7b2291e5b200ac8c7c3b925",
            "0x000000000000000000000000b70649baf7a93eeb95e3946b3a82f8f312477d2b",
            "0x000000000000000000000000000000000022d473030f116ddee9f6b43ac78ba3"
          ],
          "data": "0xffffffffffffffffffffffffffffffffffffffffffffffffffffffffffffffff",
          "blockHash": "0x37e55a742cd9911d95af946c1150a42cd3275b27f05487cc753e1b8a46f2e439",
          "blockNumber": "0x8cf84f",
          "blockTimestamp": "0x68cdf168",
          "transactionHash": "0x0633bad7a6f0d17d226d3b61c4e69778e7a8323b5e9095bb6c44de8462deee66",
          "transactionIndex": "0x2a",
          "logIndex": "0x1f",
          "removed": false
        }
      ],
      "logsBloom": "0x00000000000000000000000000000000000000000000000000000000000200000000000000000000000000000000000000000000800000000000000000200000000000000000000000004000000000000000000000000800000000000000000000000000000000000000000000080000000000000000000000000000000000000000000000100000000000000000000000000000000000000000000000000000020000000000000000000000000000000000000000002000000000000000000000000000000000000000000000000000000000000000000000000200000000000010000000000000000010000000000000000000000000000000000000000000",
      "type": "0x2",
      "transactionHash": "0x0633bad7a6f0d17d226d3b61c4e69778e7a8323b5e9095bb6c44de8462deee66",
      "transactionIndex": "0x2a",
      "blockHash": "0x37e55a742cd9911d95af946c1150a42cd3275b27f05487cc753e1b8a46f2e439",
      "blockNumber": "0x8cf84f",
      "gasUsed": "0x96e1",
      "effectiveGasPrice": "0xf4253",
      "from": "0xb70649baf7a93eeb95e3946b3a82f8f312477d2b",
      "to": "0x1c7d4b196cb0c7b01d743fbc6116a902379c7238",
      "contractAddress": null
    },
    {
      "status": "0x1",
      "cumulativeGasUsed": "0xc5cce4",
      "logs": [
        {
          "address": "0x000000000022d473030f116ddee9f6b43ac78ba3",
          "topics": [
            "0xda9fa7c1b00402c17d0161b249b1ab8bbec047c5a52207b9c112deffd817036b",
            "0x000000000000000000000000b70649baf7a93eeb95e3946b3a82f8f312477d2b",
            "0x0000000000000000000000001c7d4b196cb0c7b01d743fbc6116a902379c7238",
            "0x000000000000000000000000429ba70129df741b2ca2a85bc3a2a3328e5c09b4"
          ],
          "data": "0x000000000000000000000000ffffffffffffffffffffffffffffffffffffffff0000000000000000000000000000000000000000000000000000ffffffffffff",
          "blockHash": "0x37e55a742cd9911d95af946c1150a42cd3275b27f05487cc753e1b8a46f2e439",
          "blockNumber": "0x8cf84f",
          "blockTimestamp": "0x68cdf168",
          "transactionHash": "0x704989a93ec28b1bbace0b7501befcd9e5efd0a140ceb2403a88c02b07131e59",
          "transactionIndex": "0x2b",
          "logIndex": "0x20",
          "removed": false
        }
      ],
      "logsBloom": "0x00010000000000000000000000000000000000000000000000000000000000000000000000000040080000000000000000000000000004000000000000080000100000000000000000000000000000000000000000000000000000000000000000000000000000000000000000080000000000000000000000000800000000000020000000000000000000000000000000000000000000000000000000000000000000000000000000000000000000000000008000002000000000080000000000000000000000000000000000000000000000000000000040000200000000000000000000000000000000000000000000000000000000000000000000000400",
      "type": "0x2",
      "transactionHash": "0x704989a93ec28b1bbace0b7501befcd9e5efd0a140ceb2403a88c02b07131e59",
      "transactionIndex": "0x2b",
      "blockHash": "0x37e55a742cd9911d95af946c1150a42cd3275b27f05487cc753e1b8a46f2e439",
      "blockNumber": "0x8cf84f",
      "gasUsed": "0x6d0e",
      "effectiveGasPrice": "0xf4253",
      "from": "0xb70649baf7a93eeb95e3946b3a82f8f312477d2b",
      "to": "0x000000000022d473030f116ddee9f6b43ac78ba3",
      "contractAddress": null
    },
    {
      "status": "0x1",
      "cumulativeGasUsed": "0xc63774",
      "logs": [
        {
          "address": "0xb094011eef8e7188cc224a4c9ece9d61f500c68e",
          "topics": [
            "0x8c5be1e5ebec7d5bd14f71427d1e84f3dd0314c0f7b2291e5b200ac8c7c3b925",
            "0x000000000000000000000000b70649baf7a93eeb95e3946b3a82f8f312477d2b",
            "0x000000000000000000000000000000000022d473030f116ddee9f6b43ac78ba3"
          ],
          "data": "0xffffffffffffffffffffffffffffffffffffffffffffffffffffffffffffffff",
          "blockHash": "0x37e55a742cd9911d95af946c1150a42cd3275b27f05487cc753e1b8a46f2e439",
          "blockNumber": "0x8cf84f",
          "blockTimestamp": "0x68cdf168",
          "transactionHash": "0x9e530ca8b5e018c49ea0b459482850eb3b03f60d308ec4247fb79cba1864864d",
          "transactionIndex": "0x2c",
          "logIndex": "0x21",
          "removed": false
        }
      ],
      "logsBloom": "0x00000000000000000001000000000000000000000000000000000000000000000000000000000000000000000000000000000000800000000000000000200000000000000000000000004000000000000000000000000810000000000000000000000000000000000000000000080000000000000000000000000000000000000000000000000000000000000000000000000000000000000000000040000000020000000000000000000000000000000000000000002000000000000000000000000000000000000000000000000000000000000000000000000200000000000010000000000000000000000000000000000000000000000000000000000000",
      "type": "0x2",
      "transactionHash": "0x9e530ca8b5e018c49ea0b459482850eb3b03f60d308ec4247fb79cba1864864d",
      "transactionIndex": "0x2c",
      "blockHash": "0x37e55a742cd9911d95af946c1150a42cd3275b27f05487cc753e1b8a46f2e439",
      "blockNumber": "0x8cf84f",
      "gasUsed": "0x6a90",
      "effectiveGasPrice": "0xf4253",
      "from": "0xb70649baf7a93eeb95e3946b3a82f8f312477d2b",
      "to": "0xb094011eef8e7188cc224a4c9ece9d61f500c68e",
      "contractAddress": null
    },
    {
      "status": "0x1",
      "cumulativeGasUsed": "0xc6a476",
      "logs": [
        {
          "address": "0x000000000022d473030f116ddee9f6b43ac78ba3",
          "topics": [
            "0xda9fa7c1b00402c17d0161b249b1ab8bbec047c5a52207b9c112deffd817036b",
            "0x000000000000000000000000b70649baf7a93eeb95e3946b3a82f8f312477d2b",
            "0x000000000000000000000000b094011eef8e7188cc224a4c9ece9d61f500c68e",
            "0x000000000000000000000000429ba70129df741b2ca2a85bc3a2a3328e5c09b4"
          ],
          "data": "0x000000000000000000000000ffffffffffffffffffffffffffffffffffffffff0000000000000000000000000000000000000000000000000000ffffffffffff",
          "blockHash": "0x37e55a742cd9911d95af946c1150a42cd3275b27f05487cc753e1b8a46f2e439",
          "blockNumber": "0x8cf84f",
          "blockTimestamp": "0x68cdf168",
          "transactionHash": "0xe2e9fad845ec854a7756ad644b210dce1807c91aa2c95874c053b6cf68cad002",
          "transactionIndex": "0x2d",
          "logIndex": "0x22",
          "removed": false
        }
      ],
      "logsBloom": "0x00010000000000000000000000000000000000000000000000000000000000000000000000000040080000000000000000000000000000000000000000080000000000000000000000000000000000000000000000000000000000000000000000000000000000000000000000080000000000000000000000000800000000000020800000000000000000000000000000000000000000000000000000000000000000000000000000000000000000000000000000002000000000080000000000000000000000000000000000002000000000000000000040000200000000000000000000000000000000000000000000000000004000000000000000000400",
      "type": "0x2",
      "transactionHash": "0xe2e9fad845ec854a7756ad644b210dce1807c91aa2c95874c053b6cf68cad002",
      "transactionIndex": "0x2d",
      "blockHash": "0x37e55a742cd9911d95af946c1150a42cd3275b27f05487cc753e1b8a46f2e439",
      "blockNumber": "0x8cf84f",
      "gasUsed": "0x6d02",
      "effectiveGasPrice": "0xf4253",
      "from": "0xb70649baf7a93eeb95e3946b3a82f8f312477d2b",
      "to": "0x000000000022d473030f116ddee9f6b43ac78ba3",
      "contractAddress": null
    },
    {
      "status": "0x1",
      "cumulativeGasUsed": "0xcb16dc",
      "logs": [
        {
          "address": "0x429ba70129df741b2ca2a85bc3a2a3328e5c09b4",
          "topics": [
            "0xddf252ad1be2c89b69c2b068fc378daa952ba7f163c4a11628f55a4df523b3ef",
            "0x0000000000000000000000000000000000000000000000000000000000000000",
            "0x000000000000000000000000b70649baf7a93eeb95e3946b3a82f8f312477d2b",
            "0x000000000000000000000000000000000000000000000000000000000000437b"
          ],
          "data": "0x",
          "blockHash": "0x37e55a742cd9911d95af946c1150a42cd3275b27f05487cc753e1b8a46f2e439",
          "blockNumber": "0x8cf84f",
          "blockTimestamp": "0x68cdf168",
          "transactionHash": "0x6725664ea167c9338390abdab26399811b9bd8eb53c0447c6123af26d9c460f9",
          "transactionIndex": "0x2f",
          "logIndex": "0x23",
          "removed": false
        },
        {
          "address": "0xe03a1074c86cfedd5c142c4f04f1a1536e203543",
          "topics": [
            "0xf208f4912782fd25c7f114ca3723a2d5dd6f3bcc3ac8db5af63baa85f711d5ec",
            "0xacd9ef6ead3b1ea29709e90431a0c170efc9fbc2bf7e0548d5be1cb114e7e762",
            "0x000000000000000000000000429ba70129df741b2ca2a85bc3a2a3328e5c09b4"
          ],
          "data": "0xffffffffffffffffffffffffffffffffffffffffffffffffffffffffffff5038000000000000000000000000000000000000000000000000000000000000afc80000000000000000000000000000000000000000000000000000000000ffd9f5000000000000000000000000000000000000000000000000000000000000437b",
          "blockHash": "0x37e55a742cd9911d95af946c1150a42cd3275b27f05487cc753e1b8a46f2e439",
          "blockNumber": "0x8cf84f",
          "blockTimestamp": "0x68cdf168",
          "transactionHash": "0x6725664ea167c9338390abdab26399811b9bd8eb53c0447c6123af26d9c460f9",
          "transactionIndex": "0x2f",
          "logIndex": "0x24",
          "removed": false
        },
        {
          "address": "0x1c7d4b196cb0c7b01d743fbc6116a902379c7238",
          "topics": [
            "0xddf252ad1be2c89b69c2b068fc378daa952ba7f163c4a11628f55a4df523b3ef",
            "0x000000000000000000000000b70649baf7a93eeb95e3946b3a82f8f312477d2b",
            "0x000000000000000000000000e03a1074c86cfedd5c142c4f04f1a1536e203543"
          ],
          "data": "0x0000000000000000000000000000000000000000000000000000000000e4e1c0",
          "blockHash": "0x37e55a742cd9911d95af946c1150a42cd3275b27f05487cc753e1b8a46f2e439",
          "blockNumber": "0x8cf84f",
          "blockTimestamp": "0x68cdf168",
          "transactionHash": "0x6725664ea167c9338390abdab26399811b9bd8eb53c0447c6123af26d9c460f9",
          "transactionIndex": "0x2f",
          "logIndex": "0x25",
          "removed": false
        },
        {
          "address": "0xb094011eef8e7188cc224a4c9ece9d61f500c68e",
          "topics": [
            "0xddf252ad1be2c89b69c2b068fc378daa952ba7f163c4a11628f55a4df523b3ef",
            "0x000000000000000000000000b70649baf7a93eeb95e3946b3a82f8f312477d2b",
            "0x000000000000000000000000e03a1074c86cfedd5c142c4f04f1a1536e203543"
          ],
          "data": "0x0000000000000000000000000000000000000000000000000000000000e4e1c0",
          "blockHash": "0x37e55a742cd9911d95af946c1150a42cd3275b27f05487cc753e1b8a46f2e439",
          "blockNumber": "0x8cf84f",
          "blockTimestamp": "0x68cdf168",
          "transactionHash": "0x6725664ea167c9338390abdab26399811b9bd8eb53c0447c6123af26d9c460f9",
          "transactionIndex": "0x2f",
          "logIndex": "0x26",
          "removed": false
        }
      ],
      "logsBloom": "0x000002000000000000010810000000000000000000000000000000000802000000000000000000400800000000000000000001000000000000000000000000000000000000000000000000080000000000000000000000100000000000000000000000000200000020000000c0080800020000000000100000000810000000000000000001100000000010000000000000000000000000000000000040000000000004000000000000000000000000000000000000402000000000000000000000000002000000000000000001000000000000000000000000001200000020001000000000000000000010000000000004000000000000000000000000000000",
      "type": "0x2",
      "transactionHash": "0x6725664ea167c9338390abdab26399811b9bd8eb53c0447c6123af26d9c460f9",
      "transactionIndex": "0x2f",
      "blockHash": "0x37e55a742cd9911d95af946c1150a42cd3275b27f05487cc753e1b8a46f2e439",
      "blockNumber": "0x8cf84f",
      "gasUsed": "0x4205e",
      "effectiveGasPrice": "0xf4253",
      "from": "0xb70649baf7a93eeb95e3946b3a82f8f312477d2b",
      "to": "0x429ba70129df741b2ca2a85bc3a2a3328e5c09b4",
      "contractAddress": null
    }
  ],
  "libraries": [],
  "pending": [],
  "returns": {},
  "timestamp": 1758327145,
  "chain": 11155111,
  "commit": "b32a83f"
}