{
  "transactions": [
    {
      "hash": "0xc51b29a35b49e6d84237f10226721b8b478c204abc033c0f34beba40198060be",
      "transactionType": "CALL",
      "contractName": null,
      "contractAddress": "0x08210f9170f89ab7658f0b5e3ff39b0e03c594d4",
      "function": "approve(address,uint256)",
      "arguments": [
        "0x000000000022D473030F116dDEE9F6B43aC78BA3",
        "115792089237316195423570985008687907853269984665640564039457584007913129639935"
      ],
      "transaction": {
        "from": "0xb70649baf7a93eeb95e3946b3a82f8f312477d2b",
        "to": "0x08210f9170f89ab7658f0b5e3ff39b0e03c594d4",
        "gas": "0xdca8",
        "value": "0x0",
        "input": "0x095ea7b3000000000000000000000000000000000022d473030f116ddee9f6b43ac78ba3ffffffffffffffffffffffffffffffffffffffffffffffffffffffffffffffff",
        "nonce": "0xce",
        "chainId": "0xaa36a7"
      },
      "additionalContracts": [],
      "isFixedGasLimit": false
    },
    {
      "hash": "0x30c3ed17f0f78090d3775efb1f0272d048f9a818d7122702c3db2de69ca0d318",
      "transactionType": "CALL",
      "contractName": null,
      "contractAddress": "0x000000000022d473030f116ddee9f6b43ac78ba3",
      "function": "approve(address,address,uint160,uint48)",
      "arguments": [
        "0x08210F9170F89Ab7658F0B5E3fF39b0E03C594D4",
        "0x429ba70129df741B2Ca2a85BC3A2a3328e5c09b4",
        "1461501637330902918203684832716283019655932542975",
        "281474976710655"
      ],
      "transaction": {
        "from": "0xb70649baf7a93eeb95e3946b3a82f8f312477d2b",
        "to": "0x000000000022d473030f116ddee9f6b43ac78ba3",
        "gas": "0x96a0",
        "value": "0x0",
        "input": "0x87517c4500000000000000000000000008210f9170f89ab7658f0b5e3ff39b0e03c594d4000000000000000000000000429ba70129df741b2ca2a85bc3a2a3328e5c09b4000000000000000000000000ffffffffffffffffffffffffffffffffffffffff0000000000000000000000000000000000000000000000000000ffffffffffff",
        "nonce": "0xcf",
        "chainId": "0xaa36a7"
      },
      "additionalContracts": [],
      "isFixedGasLimit": false
    },
    {
      "hash": "0xf0323fa10bd3494cbe3115da4b6948b775ec4c2f82b1d573040186deb2c7084c",
      "transactionType": "CALL",
      "contractName": null,
      "contractAddress": "0xb094011eef8e7188cc224a4c9ece9d61f500c68e",
      "function": "approve(address,uint256)",
      "arguments": [
        "0x000000000022D473030F116dDEE9F6B43aC78BA3",
        "115792089237316195423570985008687907853269984665640564039457584007913129639935"
      ],
      "transaction": {
        "from": "0xb70649baf7a93eeb95e3946b3a82f8f312477d2b",
        "to": "0xb094011eef8e7188cc224a4c9ece9d61f500c68e",
        "gas": "0x9330",
        "value": "0x0",
        "input": "0x095ea7b3000000000000000000000000000000000022d473030f116ddee9f6b43ac78ba3ffffffffffffffffffffffffffffffffffffffffffffffffffffffffffffffff",
        "nonce": "0xd0",
        "chainId": "0xaa36a7"
      },
      "additionalContracts": [],
      "isFixedGasLimit": false
    },
    {
      "hash": "0xeb52b16ae81d877cffa0a2e13b74064a43fa48560693ebb749e6b665b1b2b606",
      "transactionType": "CALL",
      "contractName": null,
      "contractAddress": "0x000000000022d473030f116ddee9f6b43ac78ba3",
      "function": "approve(address,address,uint160,uint48)",
      "arguments": [
        "0xB094011EEF8E7188cc224a4C9eCe9D61f500C68e",
        "0x429ba70129df741B2Ca2a85BC3A2a3328e5c09b4",
        "1461501637330902918203684832716283019655932542975",
        "281474976710655"
      ],
      "transaction": {
        "from": "0xb70649baf7a93eeb95e3946b3a82f8f312477d2b",
        "to": "0x000000000022d473030f116ddee9f6b43ac78ba3",
        "gas": "0x9f6c",
        "value": "0x0",
        "input": "0x87517c45000000000000000000000000b094011eef8e7188cc224a4c9ece9d61f500c68e000000000000000000000000429ba70129df741b2ca2a85bc3a2a3328e5c09b4000000000000000000000000ffffffffffffffffffffffffffffffffffffffff0000000000000000000000000000000000000000000000000000ffffffffffff",
        "nonce": "0xd1",
        "chainId": "0xaa36a7"
      },
      "additionalContracts": [],
      "isFixedGasLimit": false
    },
    {
      "hash": "0x65395887d0f016067283c26bccb8f96e39b8abb624e282f2c5b1e6c89648a492",
      "transactionType": "CALL",
      "contractName": null,
      "contractAddress": "0x429ba70129df741b2ca2a85bc3a2a3328e5c09b4",
      "function": "multicall(bytes[])",
      "arguments": [
        "[0xdd46508f00000000000000000000000000000000000000000000000000000000000000400000000000000000000000000000000000000000000000000000000068cecfa40000000000000000000000000000000000000000000000000000000000000400000000000000000000000000000000000000000000000000000000000000004000000000000000000000000000000000000000000000000000000000000000800000000000000000000000000000000000000000000000000000000000000004020d14140000000000000000000000000000000000000000000000000000000000000000000000000000000000000000000000000000000000000000000000040000000000000000000000000000000000000000000000000000000000000080000000000000000000000000000000000000000000000000000000000000024000000000000000000000000000000000000000000000000000000000000002a0000000000000000000000000000000000000000000000000000000000000030000000000000000000000000000000000000000000000000000000000000001a000000000000000000000000008210f9170f89ab7658f0b5e3ff39b0e03c594d4000000000000000000000000b094011eef8e7188cc224a4c9ece9d61f500c68e0000000000000000000000000000000000000000000000000000000000000bb8000000000000000000000000000000000000000000000000000000000000003c000000000000000000000000cf8518c0ee072a5a2ef8de0585030086c89c4ac0ffffffffffffffffffffffffffffffffffffffffffffffffffffffffffff5038000000000000000000000000000000000000000000000000000000000000afc80000000000000000000000000000000000000000000000000000000000aa914e00000000000000000000000000000000000000000000000000000000009896810000000000000000000000000000000000000000000000008ac7230489e80001000000000000000000000000b70649baf7a93eeb95e3946b3a82f8f312477d2b00000000000000000000000000000000000000000000000000000000000001800000000000000000000000000000000000000000000000000000000000000000000000000000000000000000000000000000000000000000000000000000004000000000000000000000000008210f9170f89ab7658f0b5e3ff39b0e03c594d4000000000000000000000000b094011eef8e7188cc224a4c9ece9d61f500c68e000000000000000000000000000000000000000000000000000000000000004000000000000000000000000008210f9170f89ab7658f0b5e3ff39b0e03c594d4000000000000000000000000b70649baf7a93eeb95e3946b3a82f8f312477d2b0000000000000000000000000000000000000000000000000000000000000040000000000000000000000000b094011eef8e7188cc224a4c9ece9d61f500c68e000000000000000000000000b70649baf7a93eeb95e3946b3a82f8f312477d2b]"
      ],
      "transaction": {
        "from": "0xb70649baf7a93eeb95e3946b3a82f8f312477d2b",
        "to": "0x429ba70129df741b2ca2a85bc3a2a3328e5c09b4",
        "gas": "0x5bf50",
        "value": "0x0",
        "input": "0xac9650d80000000000000000000000000000000000000000000000000000000000000020000000000000000000000000000000000000000000000000000000000000000100000000000000000000000000000000000000000000000000000000000000200000000000000000000000000000000000000000000000000000000000000464dd46508f00000000000000000000000000000000000000000000000000000000000000400000000000000000000000000000000000000000000000000000000068cecfa40000000000000000000000000000000000000000000000000000000000000400000000000000000000000000000000000000000000000000000000000000004000000000000000000000000000000000000000000000000000000000000000800000000000000000000000000000000000000000000000000000000000000004020d14140000000000000000000000000000000000000000000000000000000000000000000000000000000000000000000000000000000000000000000000040000000000000000000000000000000000000000000000000000000000000080000000000000000000000000000000000000000000000000000000000000024000000000000000000000000000000000000000000000000000000000000002a0000000000000000000000000000000000000000000000000000000000000030000000000000000000000000000000000000000000000000000000000000001a000000000000000000000000008210f9170f89ab7658f0b5e3ff39b0e03c594d4000000000000000000000000b094011eef8e7188cc224a4c9ece9d61f500c68e0000000000000000000000000000000000000000000000000000000000000bb8000000000000000000000000000000000000000000000000000000000000003c000000000000000000000000cf8518c0ee072a5a2ef8de0585030086c89c4ac0ffffffffffffffffffffffffffffffffffffffffffffffffffffffffffff5038000000000000000000000000000000000000000000000000000000000000afc80000000000000000000000000000000000000000000000000000000000aa914e00000000000000000000000000000000000000000000000000000000009896810000000000000000000000000000000000000000000000008ac7230489e80001000000000000000000000000b70649baf7a93eeb95e3946b3a82f8f312477d2b00000000000000000000000000000000000000000000000000000000000001800000000000000000000000000000000000000000000000000000000000000000000000000000000000000000000000000000000000000000000000000000004000000000000000000000000008210f9170f89ab7658f0b5e3ff39b0e03c594d4000000000000000000000000b094011eef8e7188cc224a4c9ece9d61f500c68e000000000000000000000000000000000000000000000000000000000000004000000000000000000000000008210f9170f89ab7658f0b5e3ff39b0e03c594d4000000000000000000000000b70649baf7a93eeb95e3946b3a82f8f312477d2b0000000000000000000000000000000000000000000000000000000000000040000000000000000000000000b094011eef8e7188cc224a4c9ece9d61f500c68e000000000000000000000000b70649baf7a93eeb95e3946b3a82f8f312477d2b00000000000000000000000000000000000000000000000000000000",
        "nonce": "0xd2",
        "chainId": "0xaa36a7"
      },
      "additionalContracts": [],
      "isFixedGasLimit": false
    }
  ],
  "receipts": [
    {
      "status": "0x1",
      "cumulativeGasUsed": "0x11cd48c",
      "logs": [
        {
          "address": "0x08210f9170f89ab7658f0b5e3ff39b0e03c594d4",
          "topics": [
            "0x8c5be1e5ebec7d5bd14f71427d1e84f3dd0314c0f7b2291e5b200ac8c7c3b925",
            "0x000000000000000000000000b70649baf7a93eeb95e3946b3a82f8f312477d2b",
            "0x000000000000000000000000000000000022d473030f116ddee9f6b43ac78ba3"
          ],
          "data": "0xffffffffffffffffffffffffffffffffffffffffffffffffffffffffffffffff",
          "blockHash": "0x87b9c566619bff3f41b7cd41b8359b6d1b5a452edf9733036cfd6273ae37b434",
          "blockNumber": "0x8d0813",
          "blockTimestamp": "0x68cec1f4",
          "transactionHash": "0xc51b29a35b49e6d84237f10226721b8b478c204abc033c0f34beba40198060be",
          "transactionIndex": "0x7d",
          "logIndex": "0x48",
          "removed": false
        }
      ],
      "logsBloom": "0x00000000000000000000000000000000000000000000000000000000000000000000000000000000000000000000000000000000800000000000000000200000000000000400000000004000000000000000000000000800000000000000000000000000000000000000040000080000000000000000000000000000000000000000000000000000000000000000000000000000000000000000000000000000020000000000000000000000000000000000000000002000000000000000000040000000000000000000000000000000000000000000000000000200000000000010000000000000000000000000000000000000000000000000000000000000",
      "type": "0x2",
      "transactionHash": "0xc51b29a35b49e6d84237f10226721b8b478c204abc033c0f34beba40198060be",
      "transactionIndex": "0x7d",
      "blockHash": "0x87b9c566619bff3f41b7cd41b8359b6d1b5a452edf9733036cfd6273ae37b434",
      "blockNumber": "0x8d0813",
      "gasUsed": "0x96e1",
      "effectiveGasPrice": "0x10e184",
      "from": "0xb70649baf7a93eeb95e3946b3a82f8f312477d2b",
      "to": "0x08210f9170f89ab7658f0b5e3ff39b0e03c594d4",
      "contractAddress": null
    },
    {
      "status": "0x1",
      "cumulativeGasUsed": "0x11d419a",
      "logs": [
        {
          "address": "0x000000000022d473030f116ddee9f6b43ac78ba3",
          "topics": [
            "0xda9fa7c1b00402c17d0161b249b1ab8bbec047c5a52207b9c112deffd817036b",
            "0x000000000000000000000000b70649baf7a93eeb95e3946b3a82f8f312477d2b",
            "0x00000000000000000000000008210f9170f89ab7658f0b5e3ff39b0e03c594d4",
            "0x000000000000000000000000429ba70129df741b2ca2a85bc3a2a3328e5c09b4"
          ],
          "data": "0x000000000000000000000000ffffffffffffffffffffffffffffffffffffffff0000000000000000000000000000000000000000000000000000ffffffffffff",
          "blockHash": "0x87b9c566619bff3f41b7cd41b8359b6d1b5a452edf9733036cfd6273ae37b434",
          "blockNumber": "0x8d0813",
          "blockTimestamp": "0x68cec1f4",
          "transactionHash": "0x30c3ed17f0f78090d3775efb1f0272d048f9a818d7122702c3db2de69ca0d318",
          "transactionIndex": "0x7e",
          "logIndex": "0x49",
          "removed": false
        }
      ],
      "logsBloom": "0x00010000000000000000000000000000000000000000000000000000000000000000000000000040080400000000000000000000000000000000000000080000000000000000000000000000000000000000000000000000000000000000000000000000000000000000000000080000000000000000000000000800000000000020000000000000000000000000000000000000000000000000000000000000000000000000000000000000000000000040000000002000000000080000000000000000000000000000000000000000000000000000000040000200000000000000000000000000000000000000000000000000000000000000000400000400",
      "type": "0x2",
      "transactionHash": "0x30c3ed17f0f78090d3775efb1f0272d048f9a818d7122702c3db2de69ca0d318",
      "transactionIndex": "0x7e",
      "blockHash": "0x87b9c566619bff3f41b7cd41b8359b6d1b5a452edf9733036cfd6273ae37b434",
      "blockNumber": "0x8d0813",
      "gasUsed": "0x6d0e",
      "effectiveGasPrice": "0x10e184",
      "from": "0xb70649baf7a93eeb95e3946b3a82f8f312477d2b",
      "to": "0x000000000022d473030f116ddee9f6b43ac78ba3",
      "contractAddress": null
    },
    {
      "status": "0x1",
      "cumulativeGasUsed": "0x11dac2a",
      "logs": [
        {
          "address": "0xb094011eef8e7188cc224a4c9ece9d61f500c68e",
          "topics": [
            "0x8c5be1e5ebec7d5bd14f71427d1e84f3dd0314c0f7b2291e5b200ac8c7c3b925",
            "0x000000000000000000000000b70649baf7a93eeb95e3946b3a82f8f312477d2b",
            "0x000000000000000000000000000000000022d473030f116ddee9f6b43ac78ba3"
          ],
          "data": "0xffffffffffffffffffffffffffffffffffffffffffffffffffffffffffffffff",
          "blockHash": "0x87b9c566619bff3f41b7cd41b8359b6d1b5a452edf9733036cfd6273ae37b434",
          "blockNumber": "0x8d0813",
          "blockTimestamp": "0x68cec1f4",
          "transactionHash": "0xf0323fa10bd3494cbe3115da4b6948b775ec4c2f82b1d573040186deb2c7084c",
          "transactionIndex": "0x7f",
          "logIndex": "0x4a",
          "removed": false
        }
      ],
      "logsBloom": "0x00000000000000000001000000000000000000000000000000000000000000000000000000000000000000000000000000000000800000000000000000200000000000000000000000004000000000000000000000000810000000000000000000000000000000000000000000080000000000000000000000000000000000000000000000000000000000000000000000000000000000000000000040000000020000000000000000000000000000000000000000002000000000000000000000000000000000000000000000000000000000000000000000000200000000000010000000000000000000000000000000000000000000000000000000000000",
      "type": "0x2",
      "transactionHash": "0xf0323fa10bd3494cbe3115da4b6948b775ec4c2f82b1d573040186deb2c7084c",
      "transactionIndex": "0x7f",
      "blockHash": "0x87b9c566619bff3f41b7cd41b8359b6d1b5a452edf9733036cfd6273ae37b434",
      "blockNumber": "0x8d0813",
      "gasUsed": "0x6a90",
      "effectiveGasPrice": "0x10e184",
      "from": "0xb70649baf7a93eeb95e3946b3a82f8f312477d2b",
      "to": "0xb094011eef8e7188cc224a4c9ece9d61f500c68e",
      "contractAddress": null
    },
    {
      "status": "0x1",
      "cumulativeGasUsed": "0x11e192c",
      "logs": [
        {
          "address": "0x000000000022d473030f116ddee9f6b43ac78ba3",
          "topics": [
            "0xda9fa7c1b00402c17d0161b249b1ab8bbec047c5a52207b9c112deffd817036b",
            "0x000000000000000000000000b70649baf7a93eeb95e3946b3a82f8f312477d2b",
            "0x000000000000000000000000b094011eef8e7188cc224a4c9ece9d61f500c68e",
            "0x000000000000000000000000429ba70129df741b2ca2a85bc3a2a3328e5c09b4"
          ],
          "data": "0x000000000000000000000000ffffffffffffffffffffffffffffffffffffffff0000000000000000000000000000000000000000000000000000ffffffffffff",
          "blockHash": "0x87b9c566619bff3f41b7cd41b8359b6d1b5a452edf9733036cfd6273ae37b434",
          "blockNumber": "0x8d0813",
          "blockTimestamp": "0x68cec1f4",
          "transactionHash": "0xeb52b16ae81d877cffa0a2e13b74064a43fa48560693ebb749e6b665b1b2b606",
          "transactionIndex": "0x80",
          "logIndex": "0x4b",
          "removed": false
        }
      ],
      "logsBloom": "0x00010000000000000000000000000000000000000000000000000000000000000000000000000040080000000000000000000000000000000000000000080000000000000000000000000000000000000000000000000000000000000000000000000000000000000000000000080000000000000000000000000800000000000020800000000000000000000000000000000000000000000000000000000000000000000000000000000000000000000000000000002000000000080000000000000000000000000000000000002000000000000000000040000200000000000000000000000000000000000000000000000000004000000000000000000400",
      "type": "0x2",
      "transactionHash": "0xeb52b16ae81d877cffa0a2e13b74064a43fa48560693ebb749e6b665b1b2b606",
      "transactionIndex": "0x80",
      "blockHash": "0x87b9c566619bff3f41b7cd41b8359b6d1b5a452edf9733036cfd6273ae37b434",
      "blockNumber": "0x8d0813",
      "gasUsed": "0x6d02",
      "effectiveGasPrice": "0x10e184",
      "from": "0xb70649baf7a93eeb95e3946b3a82f8f312477d2b",
      "to": "0x000000000022d473030f116ddee9f6b43ac78ba3",
      "contractAddress": null
    },
    {
      "status": "0x1",
      "cumulativeGasUsed": "0x1224261",
      "logs": [
        {
          "address": "0x429ba70129df741b2ca2a85bc3a2a3328e5c09b4",
          "topics": [
            "0xddf252ad1be2c89b69c2b068fc378daa952ba7f163c4a11628f55a4df523b3ef",
            "0x0000000000000000000000000000000000000000000000000000000000000000",
            "0x000000000000000000000000b70649baf7a93eeb95e3946b3a82f8f312477d2b",
            "0x00000000000000000000000000000000000000000000000000000000000043b1"
          ],
          "data": "0x",
          "blockHash": "0x87b9c566619bff3f41b7cd41b8359b6d1b5a452edf9733036cfd6273ae37b434",
          "blockNumber": "0x8d0813",
          "blockTimestamp": "0x68cec1f4",
          "transactionHash": "0x65395887d0f016067283c26bccb8f96e39b8abb624e282f2c5b1e6c89648a492",
          "transactionIndex": "0x81",
          "logIndex": "0x4c",
          "removed": false
        },
        {
          "address": "0xcf8518c0ee072a5a2ef8de0585030086c89c4ac0",
          "topics": [
            "0xe4f4dfad1e4128943809bc23077ed765f12b98ec17ea4a5adc9657cc762d319c",
            "0xb77cf0215288e2b1172efe0e67487916e5732237921a77762de0ae41b962ae31"
          ],
          "data": "0x0000000000000000000000000000000000000000000000000000000000aa914e0000000000000000000000000000000000000000000000000000000000000001",
          "blockHash": "0x87b9c566619bff3f41b7cd41b8359b6d1b5a452edf9733036cfd6273ae37b434",
          "blockNumber": "0x8d0813",
          "blockTimestamp": "0x68cec1f4",
          "transactionHash": "0x65395887d0f016067283c26bccb8f96e39b8abb624e282f2c5b1e6c89648a492",
          "transactionIndex": "0x81",
          "logIndex": "0x4d",
          "removed": false
        },
        {
          "address": "0xe03a1074c86cfedd5c142c4f04f1a1536e203543",
          "topics": [
            "0xf208f4912782fd25c7f114ca3723a2d5dd6f3bcc3ac8db5af63baa85f711d5ec",
            "0xb77cf0215288e2b1172efe0e67487916e5732237921a77762de0ae41b962ae31",
            "0x000000000000000000000000429ba70129df741b2ca2a85bc3a2a3328e5c09b4"
          ],
          "data": "0xffffffffffffffffffffffffffffffffffffffffffffffffffffffffffff5038000000000000000000000000000000000000000000000000000000000000afc80000000000000000000000000000000000000000000000000000000000aa914e00000000000000000000000000000000000000000000000000000000000043b1",
          "blockHash": "0x87b9c566619bff3f41b7cd41b8359b6d1b5a452edf9733036cfd6273ae37b434",
          "blockNumber": "0x8d0813",
          "blockTimestamp": "0x68cec1f4",
          "transactionHash": "0x65395887d0f016067283c26bccb8f96e39b8abb624e282f2c5b1e6c89648a492",
          "transactionIndex": "0x81",
          "logIndex": "0x4e",
          "removed": false
        },
        {
          "address": "0x08210f9170f89ab7658f0b5e3ff39b0e03c594d4",
          "topics": [
            "0xddf252ad1be2c89b69c2b068fc378daa952ba7f163c4a11628f55a4df523b3ef",
            "0x000000000000000000000000b70649baf7a93eeb95e3946b3a82f8f312477d2b",
            "0x000000000000000000000000e03a1074c86cfedd5c142c4f04f1a1536e203543"
          ],
          "data": "0x0000000000000000000000000000000000000000000000000000000000989680",
          "blockHash": "0x87b9c566619bff3f41b7cd41b8359b6d1b5a452edf9733036cfd6273ae37b434",
          "blockNumber": "0x8d0813",
          "blockTimestamp": "0x68cec1f4",
          "transactionHash": "0x65395887d0f016067283c26bccb8f96e39b8abb624e282f2c5b1e6c89648a492",
          "transactionIndex": "0x81",
          "logIndex": "0x4f",
          "removed": false
        },
        {
          "address": "0xb094011eef8e7188cc224a4c9ece9d61f500c68e",
          "topics": [
            "0xddf252ad1be2c89b69c2b068fc378daa952ba7f163c4a11628f55a4df523b3ef",
            "0x000000000000000000000000b70649baf7a93eeb95e3946b3a82f8f312477d2b",
            "0x000000000000000000000000e03a1074c86cfedd5c142c4f04f1a1536e203543"
          ],
          "data": "0x0000000000000000000000000000000000000000000000000000000000989680",
          "blockHash": "0x87b9c566619bff3f41b7cd41b8359b6d1b5a452edf9733036cfd6273ae37b434",
          "blockNumber": "0x8d0813",
          "blockTimestamp": "0x68cec1f4",
          "transactionHash": "0x65395887d0f016067283c26bccb8f96e39b8abb624e282f2c5b1e6c89648a492",
          "transactionIndex": "0x81",
          "logIndex": "0x50",
          "removed": false
        }
      ],
      "logsBloom": "0x00000000000000000001001000000000000010000000000104000000080000000000000000000040080000000000400000000100000000000000000020002000000000000400000000000008000000000000000000000010000000000000000000000000020000000000040080080800000000000000100000000810000000008000000001000000000010000000000200000000000000000000000040004000000004000000000000000000000000000000000000502000000000000000000040000002000000000000000004000000000000000000000000001200000020001000000000000000000000000000000004000000000008000000000000000000",
      "type": "0x2",
      "transactionHash": "0x65395887d0f016067283c26bccb8f96e39b8abb624e282f2c5b1e6c89648a492",
      "transactionIndex": "0x81",
      "blockHash": "0x87b9c566619bff3f41b7cd41b8359b6d1b5a452edf9733036cfd6273ae37b434",
      "blockNumber": "0x8d0813",
      "gasUsed": "0x42935",
      "effectiveGasPrice": "0x10e184",
      "from": "0xb70649baf7a93eeb95e3946b3a82f8f312477d2b",
      "to": "0x429ba70129df741b2ca2a85bc3a2a3328e5c09b4",
      "contractAddress": null
    }
  ],
  "libraries": [],
  "pending": [],
  "returns": {},
  "timestamp": 1758380533,
  "chain": 11155111,
  "commit": "b32a83f"
}