{
  "transactions": [
    {
      "hash": "0x2c1de73abf1981dde28c92fadd92b6b6500d26735e4bfe26ec38181bc79fb78d",
      "transactionType": "CREATE2",
      "contractName": "LiquidityChange",
      "contractAddress": "0x52c73a3edc6e3d82ed675533144fd28886dccac0",
      "function": null,
      "arguments": [
        "0x000000000004444c5dc75cB358380D2e3dE08A90"
      ],
      "transaction": {
        "from": "0xb70649baf7a93eeb95e3946b3a82f8f312477d2b",
        "to": "0x4e59b44847b379578588920ca78fbf26c0b4956c",
        "gas": "0xf2ddf",
        "value": "0x0",
        "input": "0x000000000000000000000000000000000000000000000000000000000000a1fe60a06040523461028a57604051601f610de138819003918201601f19168301916001600160401b0383118484101761028e5780849260209460405283398101031261028a57516001600160a01b038116810361028a576080525f6101a06100646102a2565b8281528260208201528260408201528260608201528260808201528260a08201528260c08201528260e0820152826101008201528261012082015282610140820152826101608201528261018082015201525f6101a06100c26102a2565b82815282602082015260016040820152826060820152600160808201528260a0820152600160c0820152600160e08201528261010082015282610120820152826101408201528261016082015282610180820152015261200030161580159061027d575b801561026c575b801561025f575b801561024e575b8015610241575b8015610231575b8015610221575b8015610215575b8015610209575b80156101fd575b80156101f1575b80156101e5575b80156101d9575b6101c657604051610b1e90816102c3823960805181818160e70152818161016d015281816101bf015281816104240152818161049e0152818161059a0152818161063901526107090152f35b630732d7b560e51b5f523060045260245ffd5b5060013016151561017a565b50600230161515610173565b5060043016151561016c565b50600830161515610165565b5060103016151561015e565b50602030161515610157565b5060403016151560011415610150565b5060803016151560011415610149565b5061010030161515610142565b50610200301615156001141561013b565b5061040030161515610134565b50610800301615156001141561012d565b5061100030161515610126565b5f80fd5b634e487b7160e01b5f52604160045260245ffd5b604051906101c082016001600160401b0381118382101761028e5760405256fe60806040526004361015610011575f80fd5b5f3560e01c806321d0ee70146106f3578063259982e514610623578063340e8eea14610607578063575e24b4146105425780635c338d32146105195780636c2bbe7e1461048b5780636fe7e6eb146104e15780639f063efc1461048b578063b47b2fb1146103cc578063b6a8b0fa146100d4578063c4e833ce1461026c578063c693995714610242578063dacdbe7714610218578063db6a9451146101ee578063dc4c90d3146101aa578063dc98354e1461013c5763e1b4af69146100d4575f80fd5b34610138576100e236610931565b5050507f00000000000000000000000000000000000000000000000000000000000000006001600160a01b03163303925061012991505057630a85dc2960e01b5f5260045ffd5b63570c108560e11b5f5260045ffd5b5f80fd5b346101385760e0366003190112610138576101556107e5565b5060a03660231901126101385761016a61090b565b507f00000000000000000000000000000000000000000000000000000000000000006001600160a01b0316330361012957630a85dc2960e01b5f5260045ffd5b34610138575f366003190112610138576040517f00000000000000000000000000000000000000000000000000000000000000006001600160a01b03168152602090f35b34610138576020366003190112610138576004355f526003602052602060405f2054604051908152f35b34610138576020366003190112610138576004355f526001602052602060405f2054604051908152f35b34610138576020366003190112610138576004355f526002602052602060405f2054604051908152f35b34610138575f366003190112610138575f6101a0610288610989565b8281528260208201528260408201528260608201528260808201528260a08201528260c08201528260e0820152826101008201528261012082015282610140820152826101608201528261018082015201526101c060206102e7610989565b5f8152818101905f82526040810160018152606082015f8152608083016001815260a084015f815260c085016001815260e0860190600182526101008701925f84526101208801945f86526101408901965f88526101608a01985f8a526101a06101808c019b5f8d52019b5f8d526040519d8e915f835251151591015251151560408d015251151560608c015251151560808b015251151560a08a015251151560c089015251151560e08801525115156101008701525115156101208601525115156101408501525115156101608401525115156101808301525115156101a0820152f35b3461013857610160366003190112610138576103e66107e5565b5060a03660231901126101385760603660c3190112610138576101443567ffffffffffffffff81116101385761042090369060040161080f565b50507f00000000000000000000000000000000000000000000000000000000000000006001600160a01b031633036101295760a061045d366109de565b205f52600160205260405f206104738154610ada565b90556040805163b47b2fb160e01b81525f6020820152f35b3461013857610499366108a1565b5050507f00000000000000000000000000000000000000000000000000000000000000006001600160a01b0316330393506101299250505057630a85dc2960e01b5f5260045ffd5b3461013857610100366003190112610138576104fb6107e5565b5060a03660231901126101385761051061090b565b5061016a610921565b34610138576020366003190112610138576004355f525f602052602060405f2054604051908152f35b34610138576101403660031901126101385761055c6107e5565b5060a03660231901126101385760603660c3190112610138576101243567ffffffffffffffff81116101385761059690369060040161080f565b50507f00000000000000000000000000000000000000000000000000000000000000006001600160a01b031633036101295760a06105d3366109de565b205f525f60205260405f206105e88154610ada565b905560606040516315d7892d60e21b81525f60208201525f6040820152f35b34610138575f3660031901126101385760206040516103e88152f35b34610138576106313661083d565b5091925090507f00000000000000000000000000000000000000000000000000000000000000006001600160a01b031633036101295760409060a06106763685610a60565b205f526002602052815f2061068b8154610ada565b90550135906103e88212156106ad575b60405163259982e560e01b8152602090f35b604060a06106dd7fe4f4dfad1e4128943809bc23077ed765f12b98ec17ea4a5adc9657cc762d319c933690610a60565b2092815190815260016020820152a2808061069b565b34610138576107013661083d565b5091925090507f00000000000000000000000000000000000000000000000000000000000000006001600160a01b031633036101295760409060a06107463685610a60565b205f526003602052815f2061075b8154610ada565b90550135906103e71982131561077e575b60405163021d0ee760e41b8152602090f35b61078b60a0913690610a60565b2090600160ff1b81146107d15760407fe4f4dfad1e4128943809bc23077ed765f12b98ec17ea4a5adc9657cc762d319c915f0381519081525f6020820152a2808061076c565b634e487b7160e01b5f52601160045260245ffd5b600435906001600160a01b038216820361013857565b35906001600160a01b038216820361013857565b9181601f840112156101385782359167ffffffffffffffff8311610138576020838186019501011161013857565b90610160600319830112610138576004356001600160a01b0381168103610138579160a060231982011261013857602491608060c3198301126101385760c491610144359067ffffffffffffffff82116101385761089d9160040161080f565b9091565b906101a0600319830112610138576004356001600160a01b0381168103610138579160a060231982011261013857602491608060c3198301126101385760c49161014435916101643591610184359067ffffffffffffffff82116101385761089d9160040161080f565b60c435906001600160a01b038216820361013857565b60e435908160020b820361013857565b610120600319820112610138576004356001600160a01b0381168103610138579160a06023198301126101385760249160c4359160e43591610104359067ffffffffffffffff82116101385761089d9160040161080f565b604051906101c0820182811067ffffffffffffffff8211176109aa57604052565b634e487b7160e01b5f52604160045260245ffd5b6040519060a0820182811067ffffffffffffffff8211176109aa57604052565b60a0906023190112610138576109f26109be565b906024356001600160a01b03811681036101385782526044356001600160a01b038116810361013857602083015260643562ffffff811681036101385760408301526084358060020b810361013857606083015260a4356001600160a01b0381168103610138576080830152565b91908260a091031261013857610a746109be565b91610a7e816107fb565b8352610a8c602082016107fb565b6020840152604081013562ffffff811681036101385760408401526060810135908160020b8203610138576060840191909152608001356001600160a01b0381168103610138576080830152565b5f1981146107d1576001019056fea26469706673582212207bfd8836077bc663616f49eaed4b47c62dbb0bae170de80a5b2854c7e763c8c464736f6c634300081d0033000000000000000000000000000000000004444c5dc75cb358380d2e3de08a90",
        "nonce": "0x22",
        "chainId": "0x1"
      },
      "additionalContracts": [],
      "isFixedGasLimit": false
    },
    {
      "hash": "0x0b85f4d59bbd04cd49dc2e571296e84da454df848c9c3682f52721aa464edf52",
      "transactionType": "CALL",
      "contractName": null,
      "contractAddress": "0x04b5480d64730bbe768454da930a0545babd437d",
      "function": "approve(address,uint256)",
      "arguments": [
        "0x000000000022D473030F116dDEE9F6B43aC78BA3",
        "115792089237316195423570985008687907853269984665640564039457584007913129639935"
      ],
      "transaction": {
        "from": "0xb70649baf7a93eeb95e3946b3a82f8f312477d2b",
        "to": "0x04b5480d64730bbe768454da930a0545babd437d",
        "gas": "0x107fc",
        "value": "0x0",
        "input": "0x095ea7b3000000000000000000000000000000000022d473030f116ddee9f6b43ac78ba3ffffffffffffffffffffffffffffffffffffffffffffffffffffffffffffffff",
        "nonce": "0x23",
        "chainId": "0x1"
      },
      "additionalContracts": [],
      "isFixedGasLimit": false
    },
    {
      "hash": "0x330cb40dfc72ec9e3e64e023bd32573bbce3b6ad95c9d33228412a5b0801342b",
      "transactionType": "CALL",
      "contractName": null,
      "contractAddress": "0x000000000022d473030f116ddee9f6b43ac78ba3",
      "function": "approve(address,address,uint160,uint48)",
      "arguments": [
        "0x04B5480D64730bbE768454da930a0545BabD437d",
        "0xbD216513d74C8cf14cf4747E6AaA6420FF64ee9e",
        "1461501637330902918203684832716283019655932542975",
        "281474976710655"
      ],
      "transaction": {
        "from": "0xb70649baf7a93eeb95e3946b3a82f8f312477d2b",
        "to": "0x000000000022d473030f116ddee9f6b43ac78ba3",
        "gas": "0x1112d",
        "value": "0x0",
        "input": "0x87517c4500000000000000000000000004b5480d64730bbe768454da930a0545babd437d000000000000000000000000bd216513d74c8cf14cf4747e6aaa6420ff64ee9e000000000000000000000000ffffffffffffffffffffffffffffffffffffffff0000000000000000000000000000000000000000000000000000ffffffffffff",
        "nonce": "0x24",
        "chainId": "0x1"
      },
      "additionalContracts": [],
      "isFixedGasLimit": false
    },
    {
      "hash": "0x726385dfb285412203f8db955ab8bdbd4390b0eb541bd4fd3356009a226dd596",
      "transactionType": "CALL",
      "contractName": null,
      "contractAddress": "0x86f9ef9f873f2f23a15d3eab53239b13bc33518c",
      "function": "approve(address,uint256)",
      "arguments": [
        "0x000000000022D473030F116dDEE9F6B43aC78BA3",
        "115792089237316195423570985008687907853269984665640564039457584007913129639935"
      ],
      "transaction": {
        "from": "0xb70649baf7a93eeb95e3946b3a82f8f312477d2b",
        "to": "0x86f9ef9f873f2f23a15d3eab53239b13bc33518c",
        "gas": "0x107fc",
        "value": "0x0",
        "input": "0x095ea7b3000000000000000000000000000000000022d473030f116ddee9f6b43ac78ba3ffffffffffffffffffffffffffffffffffffffffffffffffffffffffffffffff",
        "nonce": "0x25",
        "chainId": "0x1"
      },
      "additionalContracts": [],
      "isFixedGasLimit": false
    },
    {
      "hash": "0xd592ca2455a591d08cb304c5f43567b8537d45f3879ecfeb9b3ae078b4e1ef79",
      "transactionType": "CALL",
      "contractName": null,
      "contractAddress": "0x000000000022d473030f116ddee9f6b43ac78ba3",
      "function": "approve(address,address,uint160,uint48)",
      "arguments": [
        "0x86f9EF9F873f2F23a15d3EaB53239B13BC33518C",
        "0xbD216513d74C8cf14cf4747E6AaA6420FF64ee9e",
        "1461501637330902918203684832716283019655932542975",
        "281474976710655"
      ],
      "transaction": {
        "from": "0xb70649baf7a93eeb95e3946b3a82f8f312477d2b",
        "to": "0x000000000022d473030f116ddee9f6b43ac78ba3",
        "gas": "0x1112d",
        "value": "0x0",
        "input": "0x87517c4500000000000000000000000086f9ef9f873f2f23a15d3eab53239b13bc33518c000000000000000000000000bd216513d74c8cf14cf4747e6aaa6420ff64ee9e000000000000000000000000ffffffffffffffffffffffffffffffffffffffff0000000000000000000000000000000000000000000000000000ffffffffffff",
        "nonce": "0x26",
        "chainId": "0x1"
      },
      "additionalContracts": [],
      "isFixedGasLimit": false
    },
    {
      "hash": "0x9e9c73de48de5b8f5ed3fb6bd0c9ed795e92570d28c61c054f3c7bfdeb0d8f0c",
      "transactionType": "CALL",
      "contractName": null,
      "contractAddress": "0xbd216513d74c8cf14cf4747e6aaa6420ff64ee9e",
      "function": "multicall(bytes[])",
      "arguments": [
        "[0xf702040500000000000000000000000004b5480d64730bbe768454da930a0545babd437d00000000000000000000000086f9ef9f873f2f23a15d3eab53239b13bc33518c0000000000000000000000000000000000000000000000000000000000000bb8000000000000000000000000000000000000000000000000000000000000003c00000000000000000000000052c73a3edc6e3d82ed675533144fd28886dccac0000000000000000000000000000000000000000100000000000000000000000000000000000000000000000000000000000000000000000000000000000000e00000000000000000000000000000000000000000000000000000000000000000, 0xdd46508f00000000000000000000000000000000000000000000000000000000000000400000000000000000000000000000000000000000000000000000000068d198a70000000000000000000000000000000000000000000000000000000000000400000000000000000000000000000000000000000000000000000000000000004000000000000000000000000000000000000000000000000000000000000000800000000000000000000000000000000000000000000000000000000000000004020d14140000000000000000000000000000000000000000000000000000000000000000000000000000000000000000000000000000000000000000000000040000000000000000000000000000000000000000000000000000000000000080000000000000000000000000000000000000000000000000000000000000024000000000000000000000000000000000000000000000000000000000000002a0000000000000000000000000000000000000000000000000000000000000030000000000000000000000000000000000000000000000000000000000000001a000000000000000000000000004b5480d64730bbe768454da930a0545babd437d00000000000000000000000086f9ef9f873f2f23a15d3eab53239b13bc33518c0000000000000000000000000000000000000000000000000000000000000bb8000000000000000000000000000000000000000000000000000000000000003c00000000000000000000000052c73a3edc6e3d82ed675533144fd28886dccac0ffffffffffffffffffffffffffffffffffffffffffffffffffffffffffff5038000000000000000000000000000000000000000000000000000000000000afc80000000000000000000000000000000000000000000000000000000000aa914e00000000000000000000000000000000000000000000000000000000009896810000000000000000000000000000000000000000000000008ac7230489e80001000000000000000000000000b70649baf7a93eeb95e3946b3a82f8f312477d2b00000000000000000000000000000000000000000000000000000000000001800000000000000000000000000000000000000000000000000000000000000000000000000000000000000000000000000000000000000000000000000000004000000000000000000000000004b5480d64730bbe768454da930a0545babd437d00000000000000000000000086f9ef9f873f2f23a15d3eab53239b13bc33518c000000000000000000000000000000000000000000000000000000000000004000000000000000000000000004b5480d64730bbe768454da930a0545babd437d000000000000000000000000b70649baf7a93eeb95e3946b3a82f8f312477d2b000000000000000000000000000000000000000000000000000000000000004000000000000000000000000086f9ef9f873f2f23a15d3eab53239b13bc33518c000000000000000000000000b70649baf7a93eeb95e3946b3a82f8f312477d2b]"
      ],
      "transaction": {
        "from": "0xb70649baf7a93eeb95e3946b3a82f8f312477d2b",
        "to": "0xbd216513d74c8cf14cf4747e6aaa6420ff64ee9e",
        "gas": "0xb7e3c",
        "value": "0x0",
        "input": "0xac9650d800000000000000000000000000000000000000000000000000000000000000200000000000000000000000000000000000000000000000000000000000000002000000000000000000000000000000000000000000000000000000000000004000000000000000000000000000000000000000000000000000000000000001800000000000000000000000000000000000000000000000000000000000000104f702040500000000000000000000000004b5480d64730bbe768454da930a0545babd437d00000000000000000000000086f9ef9f873f2f23a15d3eab53239b13bc33518c0000000000000000000000000000000000000000000000000000000000000bb8000000000000000000000000000000000000000000000000000000000000003c00000000000000000000000052c73a3edc6e3d82ed675533144fd28886dccac0000000000000000000000000000000000000000100000000000000000000000000000000000000000000000000000000000000000000000000000000000000e00000000000000000000000000000000000000000000000000000000000000000000000000000000000000000000000000000000000000000000000000000000000000000000000000000000000000000000000000000000000000464dd46508f00000000000000000000000000000000000000000000000000000000000000400000000000000000000000000000000000000000000000000000000068d198a70000000000000000000000000000000000000000000000000000000000000400000000000000000000000000000000000000000000000000000000000000004000000000000000000000000000000000000000000000000000000000000000800000000000000000000000000000000000000000000000000000000000000004020d14140000000000000000000000000000000000000000000000000000000000000000000000000000000000000000000000000000000000000000000000040000000000000000000000000000000000000000000000000000000000000080000000000000000000000000000000000000000000000000000000000000024000000000000000000000000000000000000000000000000000000000000002a0000000000000000000000000000000000000000000000000000000000000030000000000000000000000000000000000000000000000000000000000000001a000000000000000000000000004b5480d64730bbe768454da930a0545babd437d00000000000000000000000086f9ef9f873f2f23a15d3eab53239b13bc33518c0000000000000000000000000000000000000000000000000000000000000bb8000000000000000000000000000000000000000000000000000000000000003c00000000000000000000000052c73a3edc6e3d82ed675533144fd28886dccac0ffffffffffffffffffffffffffffffffffffffffffffffffffffffffffff5038000000000000000000000000000000000000000000000000000000000000afc80000000000000000000000000000000000000000000000000000000000aa914e00000000000000000000000000000000000000000000000000000000009896810000000000000000000000000000000000000000000000008ac7230489e80001000000000000000000000000b70649baf7a93eeb95e3946b3a82f8f312477d2b00000000000000000000000000000000000000000000000000000000000001800000000000000000000000000000000000000000000000000000000000000000000000000000000000000000000000000000000000000000000000000000004000000000000000000000000004b5480d64730bbe768454da930a0545babd437d00000000000000000000000086f9ef9f873f2f23a15d3eab53239b13bc33518c000000000000000000000000000000000000000000000000000000000000004000000000000000000000000004b5480d64730bbe768454da930a0545babd437d000000000000000000000000b70649baf7a93eeb95e3946b3a82f8f312477d2b000000000000000000000000000000000000000000000000000000000000004000000000000000000000000086f9ef9f873f2f23a15d3eab53239b13bc33518c000000000000000000000000b70649baf7a93eeb95e3946b3a82f8f312477d2b00000000000000000000000000000000000000000000000000000000",
        "nonce": "0x27",
        "chainId": "0x1"
      },
      "additionalContracts": [],
      "isFixedGasLimit": false
    }
  ],
  "receipts": [
    {
      "status": "0x1",
      "cumulativeGasUsed": "0x110263c",
      "logs": [],
      "logsBloom": "0x00000000000000000000000000000000000000000000000000000000000000000000000000000000000000000000000000000000000000000000000000000000000000000000000000000000000000000000000000000000000000000000000000000000000000000000000000000000000000000000000000000000000000000000000000000000000000000000000000000000000000000000000000000000000000000000000000000000000000000000000000000000000000000000000000000000000000000000000000000000000000000000000000000000000000000000000000000000000000000000000000000000000000000000000000000000",
      "type": "0x2",
      "transactionHash": "0x2c1de73abf1981dde28c92fadd92b6b6500d26735e4bfe26ec38181bc79fb78d",
      "transactionIndex": "0x87",
      "blockHash": "0xe453ce9669a3b6ee142e86d2860621f65f28e8897f8026d0a60536cb7316d7b7",
      "blockNumber": "0x1655ce3",
      "gasUsed": "0xa6102",
      "effectiveGasPrice": "0x1b859c4f",
      "from": "0xb70649baf7a93eeb95e3946b3a82f8f312477d2b",
      "to": "0x4e59b44847b379578588920ca78fbf26c0b4956c",
      "contractAddress": null
    },
    {
      "status": "0x1",
      "cumulativeGasUsed": "0x1285a0e",
      "logs": [
        {
          "address": "0x04b5480d64730bbe768454da930a0545babd437d",
          "topics": [
            "0x8c5be1e5ebec7d5bd14f71427d1e84f3dd0314c0f7b2291e5b200ac8c7c3b925",
            "0x000000000000000000000000b70649baf7a93eeb95e3946b3a82f8f312477d2b",
            "0x000000000000000000000000000000000022d473030f116ddee9f6b43ac78ba3"
          ],
          "data": "0xffffffffffffffffffffffffffffffffffffffffffffffffffffffffffffffff",
          "blockHash": "0xe453ce9669a3b6ee142e86d2860621f65f28e8897f8026d0a60536cb7316d7b7",
          "blockNumber": "0x1655ce3",
          "blockTimestamp": "0x68d18abb",
          "transactionHash": "0x0b85f4d59bbd04cd49dc2e571296e84da454df848c9c3682f52721aa464edf52",
          "transactionIndex": "0xb2",
          "logIndex": "0x1ff",
          "removed": false
        }
      ],
      "logsBloom": "0x00000000000000000000000000000000000000000000000000000000000000000000000000000000000000000000000100000000800000000000000000200000000000000000000000004000000000000000000000000800000000000000000000000000000000000000000100080000000000000000000000000000000000000000000000000000000000000000000000000000000000000000000000000000020000000000000000000000000000000000000000002000000000000000000000000000000000000000000000000000000000000000000000020200000000000010000000000000000000000000000000000000000000000000000000000000",
      "type": "0x2",
      "transactionHash": "0x0b85f4d59bbd04cd49dc2e571296e84da454df848c9c3682f52721aa464edf52",
      "transactionIndex": "0xb2",
      "blockHash": "0xe453ce9669a3b6ee142e86d2860621f65f28e8897f8026d0a60536cb7316d7b7",
      "blockNumber": "0x1655ce3",
      "gasUsed": "0xb481",
      "effectiveGasPrice": "0x1b859c4f",
      "from": "0xb70649baf7a93eeb95e3946b3a82f8f312477d2b",
      "to": "0x04b5480d64730bbe768454da930a0545babd437d",
      "contractAddress": null
    },
    {
      "status": "0x1",
      "cumulativeGasUsed": "0x12b4c61",
      "logs": [
        {
          "address": "0x000000000022d473030f116ddee9f6b43ac78ba3",
          "topics": [
            "0xda9fa7c1b00402c17d0161b249b1ab8bbec047c5a52207b9c112deffd817036b",
            "0x000000000000000000000000b70649baf7a93eeb95e3946b3a82f8f312477d2b",
            "0x00000000000000000000000004b5480d64730bbe768454da930a0545babd437d",
            "0x000000000000000000000000bd216513d74c8cf14cf4747e6aaa6420ff64ee9e"
          ],
          "data": "0x000000000000000000000000ffffffffffffffffffffffffffffffffffffffff0000000000000000000000000000000000000000000000000000ffffffffffff",
          "blockHash": "0x6b924ecce05ee1816b8fa2d44349f2e372691a52f8c214d8b8ed67243ede3d70",
          "blockNumber": "0x1655ce5",
          "blockTimestamp": "0x68d18ad3",
          "transactionHash": "0x330cb40dfc72ec9e3e64e023bd32573bbce3b6ad95c9d33228412a5b0801342b",
          "transactionIndex": "0xeb",
          "logIndex": "0x1e1",
          "removed": false
        }
      ],
      "logsBloom": "0x00010040000000000000000000010000000000000000000000000000000000000000000000000000000000000000000400000000000000000000000000080000000000000000000000000000000000000000000000000000000000000000000000000000000000000000000000080000000000000000000000000000100004000020000000000000000000000000000000000000000000000000000000000000000000000000000000000000000000000000000000002000000000080000000000000000000000000000000000000000000000000000000040000200000000000000000000000000000000000000000000400000000000000000000000000400",
      "type": "0x2",
      "transactionHash": "0x330cb40dfc72ec9e3e64e023bd32573bbce3b6ad95c9d33228412a5b0801342b",
      "transactionIndex": "0xeb",
      "blockHash": "0x6b924ecce05ee1816b8fa2d44349f2e372691a52f8c214d8b8ed67243ede3d70",
      "blockNumber": "0x1655ce5",
      "gasUsed": "0xbaca",
      "effectiveGasPrice": "0x1a080e15",
      "from": "0xb70649baf7a93eeb95e3946b3a82f8f312477d2b",
      "to": "0x000000000022d473030f116ddee9f6b43ac78ba3",
      "contractAddress": null
    },
    {
      "status": "0x1",
      "cumulativeGasUsed": "0x12c00e2",
      "logs": [
        {
          "address": "0x86f9ef9f873f2f23a15d3eab53239b13bc33518c",
          "topics": [
            "0x8c5be1e5ebec7d5bd14f71427d1e84f3dd0314c0f7b2291e5b200ac8c7c3b925",
            "0x000000000000000000000000b70649baf7a93eeb95e3946b3a82f8f312477d2b",
            "0x000000000000000000000000000000000022d473030f116ddee9f6b43ac78ba3"
          ],
          "data": "0xffffffffffffffffffffffffffffffffffffffffffffffffffffffffffffffff",
          "blockHash": "0x6b924ecce05ee1816b8fa2d44349f2e372691a52f8c214d8b8ed67243ede3d70",
          "blockNumber": "0x1655ce5",
          "blockTimestamp": "0x68d18ad3",
          "transactionHash": "0x726385dfb285412203f8db955ab8bdbd4390b0eb541bd4fd3356009a226dd596",
          "transactionIndex": "0xec",
          "logIndex": "0x1e2",
          "removed": false
        }
      ],
      "logsBloom": "0x00000000000000000000000000000000000000000000000000000000000000000000000000000000000000000000000000000000800000000000000000200000000000000000000000004000000000000000000000000800000000000000000000000000000000000000000000080000010000000000000000000000000000000000000000000000000000000000000000000000000000000000000000000000020000000000000000000000000000000000000000002000000000000000000000000000000000000000800000000000000000000000000002000200000000000010000000000000000000000000000000000000000000000000000000000000",
      "type": "0x2",
      "transactionHash": "0x726385dfb285412203f8db955ab8bdbd4390b0eb541bd4fd3356009a226dd596",
      "transactionIndex": "0xec",
      "blockHash": "0x6b924ecce05ee1816b8fa2d44349f2e372691a52f8c214d8b8ed67243ede3d70",
      "blockNumber": "0x1655ce5",
      "gasUsed": "0xb481",
      "effectiveGasPrice": "0x1a080e15",
      "from": "0xb70649baf7a93eeb95e3946b3a82f8f312477d2b",
      "to": "0x86f9ef9f873f2f23a15d3eab53239b13bc33518c",
      "contractAddress": null
    },
    {
      "status": "0x1",
      "cumulativeGasUsed": "0x1083dd0",
      "logs": [
        {
          "address": "0x000000000022d473030f116ddee9f6b43ac78ba3",
          "topics": [
            "0xda9fa7c1b00402c17d0161b249b1ab8bbec047c5a52207b9c112deffd817036b",
            "0x000000000000000000000000b70649baf7a93eeb95e3946b3a82f8f312477d2b",
            "0x00000000000000000000000086f9ef9f873f2f23a15d3eab53239b13bc33518c",
            "0x000000000000000000000000bd216513d74c8cf14cf4747e6aaa6420ff64ee9e"
          ],
          "data": "0x000000000000000000000000ffffffffffffffffffffffffffffffffffffffff0000000000000000000000000000000000000000000000000000ffffffffffff",
          "blockHash": "0x1dae51fb33dfcd8fb625eaf8393d8902177c8cb71a18a6221dc06a0290b396e2",
          "blockNumber": "0x1655ce6",
          "blockTimestamp": "0x68d18adf",
          "transactionHash": "0xd592ca2455a591d08cb304c5f43567b8537d45f3879ecfeb9b3ae078b4e1ef79",
          "transactionIndex": "0xd0",
          "logIndex": "0x1ac",
          "removed": false
        }
      ],
      "logsBloom": "0x00010040000000000000000000000000000000000000000000000000000000000000000000000000000000000000000400000000000000000000000000080000008000000000000000000000000000000000000000000000000000000000000000000000000000000000000000080000000000000000000000000000100000000020000000000000000000000000000000000000000000000000000000000000000000000000000000000000000000000000000000002000000020080000000000000000000000000000000000040000000000000000000040000200000000000000000000000000000000000000000000000000000000000000000000000400",
      "type": "0x2",
      "transactionHash": "0xd592ca2455a591d08cb304c5f43567b8537d45f3879ecfeb9b3ae078b4e1ef79",
      "transactionIndex": "0xd0",
      "blockHash": "0x1dae51fb33dfcd8fb625eaf8393d8902177c8cb71a18a6221dc06a0290b396e2",
      "blockNumber": "0x1655ce6",
      "gasUsed": "0xbaca",
      "effectiveGasPrice": "0x1a66c1fe",
      "from": "0xb70649baf7a93eeb95e3946b3a82f8f312477d2b",
      "to": "0x000000000022d473030f116ddee9f6b43ac78ba3",
      "contractAddress": null
    },
    {
      "status": "0x1",
      "cumulativeGasUsed": "0xfb024c",
      "logs": [
        {
          "address": "0x000000000004444c5dc75cb358380d2e3de08a90",
          "topics": [
            "0xdd466e674ea557f56295e2d0218a125ea4b4f0f6f3307b95f85e6110838d6438",
            "0x477a4bdfe57f93e32c5a0b4a5c3db55d7ca916fa79d2b0de48d69d3bd4d9a492",
            "0x00000000000000000000000004b5480d64730bbe768454da930a0545babd437d",
            "0x00000000000000000000000086f9ef9f873f2f23a15d3eab53239b13bc33518c"
          ],
          "data": "0x0000000000000000000000000000000000000000000000000000000000000bb8000000000000000000000000000000000000000000000000000000000000003c00000000000000000000000052c73a3edc6e3d82ed675533144fd28886dccac000000000000000000000000000000000000000010000000000000000000000000000000000000000000000000000000000000000000000000000000000000000",
          "blockHash": "0x3e873225682987fc0e1a0e056bc096e7f57caac6bbf882ad49b275962795fbdd",
          "blockNumber": "0x1655ce7",
          "blockTimestamp": "0x68d18aeb",
          "transactionHash": "0x9e9c73de48de5b8f5ed3fb6bd0c9ed795e92570d28c61c054f3c7bfdeb0d8f0c",
          "transactionIndex": "0xaa",
          "logIndex": "0x19c",
          "removed": false
        },
        {
          "address": "0xbd216513d74c8cf14cf4747e6aaa6420ff64ee9e",
          "topics": [
            "0xddf252ad1be2c89b69c2b068fc378daa952ba7f163c4a11628f55a4df523b3ef",
            "0x0000000000000000000000000000000000000000000000000000000000000000",
            "0x000000000000000000000000b70649baf7a93eeb95e3946b3a82f8f312477d2b",
            "0x0000000000000000000000000000000000000000000000000000000000010df8"
          ],
          "data": "0x",
          "blockHash": "0x3e873225682987fc0e1a0e056bc096e7f57caac6bbf882ad49b275962795fbdd",
          "blockNumber": "0x1655ce7",
          "blockTimestamp": "0x68d18aeb",
          "transactionHash": "0x9e9c73de48de5b8f5ed3fb6bd0c9ed795e92570d28c61c054f3c7bfdeb0d8f0c",
          "transactionIndex": "0xaa",
          "logIndex": "0x19d",
          "removed": false
        },
        {
          "address": "0x52c73a3edc6e3d82ed675533144fd28886dccac0",
          "topics": [
            "0xe4f4dfad1e4128943809bc23077ed765f12b98ec17ea4a5adc9657cc762d319c",
            "0x477a4bdfe57f93e32c5a0b4a5c3db55d7ca916fa79d2b0de48d69d3bd4d9a492"
          ],
          "data": "0x0000000000000000000000000000000000000000000000000000000000aa914e0000000000000000000000000000000000000000000000000000000000000001",
          "blockHash": "0x3e873225682987fc0e1a0e056bc096e7f57caac6bbf882ad49b275962795fbdd",
          "blockNumber": "0x1655ce7",
          "blockTimestamp": "0x68d18aeb",
          "transactionHash": "0x9e9c73de48de5b8f5ed3fb6bd0c9ed795e92570d28c61c054f3c7bfdeb0d8f0c",
          "transactionIndex": "0xaa",
          "logIndex": "0x19e",
          "removed": false
        },
        {
          "address": "0x000000000004444c5dc75cb358380d2e3de08a90",
          "topics": [
            "0xf208f4912782fd25c7f114ca3723a2d5dd6f3bcc3ac8db5af63baa85f711d5ec",
            "0x477a4bdfe57f93e32c5a0b4a5c3db55d7ca916fa79d2b0de48d69d3bd4d9a492",
            "0x000000000000000000000000bd216513d74c8cf14cf4747e6aaa6420ff64ee9e"
          ],
          "data": "0xffffffffffffffffffffffffffffffffffffffffffffffffffffffffffff5038000000000000000000000000000000000000000000000000000000000000afc80000000000000000000000000000000000000000000000000000000000aa914e0000000000000000000000000000000000000000000000000000000000010df8",
          "blockHash": "0x3e873225682987fc0e1a0e056bc096e7f57caac6bbf882ad49b275962795fbdd",
          "blockNumber": "0x1655ce7",
          "blockTimestamp": "0x68d18aeb",
          "transactionHash": "0x9e9c73de48de5b8f5ed3fb6bd0c9ed795e92570d28c61c054f3c7bfdeb0d8f0c",
          "transactionIndex": "0xaa",
          "logIndex": "0x19f",
          "removed": false
        },
        {
          "address": "0x04b5480d64730bbe768454da930a0545babd437d",
          "topics": [
            "0xddf252ad1be2c89b69c2b068fc378daa952ba7f163c4a11628f55a4df523b3ef",
            "0x000000000000000000000000b70649baf7a93eeb95e3946b3a82f8f312477d2b",
            "0x000000000000000000000000000000000004444c5dc75cb358380d2e3de08a90"
          ],
          "data": "0x0000000000000000000000000000000000000000000000000000000000989680",
          "blockHash": "0x3e873225682987fc0e1a0e056bc096e7f57caac6bbf882ad49b275962795fbdd",
          "blockNumber": "0x1655ce7",
          "blockTimestamp": "0x68d18aeb",
          "transactionHash": "0x9e9c73de48de5b8f5ed3fb6bd0c9ed795e92570d28c61c054f3c7bfdeb0d8f0c",
          "transactionIndex": "0xaa",
          "logIndex": "0x1a0",
          "removed": false
        },
        {
          "address": "0x86f9ef9f873f2f23a15d3eab53239b13bc33518c",
          "topics": [
            "0xddf252ad1be2c89b69c2b068fc378daa952ba7f163c4a11628f55a4df523b3ef",
            "0x000000000000000000000000b70649baf7a93eeb95e3946b3a82f8f312477d2b",
            "0x000000000000000000000000000000000004444c5dc75cb358380d2e3de08a90"
          ],
          "data": "0x0000000000000000000000000000000000000000000000000000000000989680",
          "blockHash": "0x3e873225682987fc0e1a0e056bc096e7f57caac6bbf882ad49b275962795fbdd",
          "blockNumber": "0x1655ce7",
          "blockTimestamp": "0x68d18aeb",
          "transactionHash": "0x9e9c73de48de5b8f5ed3fb6bd0c9ed795e92570d28c61c054f3c7bfdeb0d8f0c",
          "transactionIndex": "0xaa",
          "logIndex": "0x1a1",
          "removed": false
        }
      ],
      "logsBloom": "0x0000004000000000000000000001000000041000000000000000000000000000000000002000000000100000000000050000000800000000000000000000000000a00000000000000000000800000000000000000000000000000000000000000000000002000000000000011008080001000008000000000000001010000c000000000801000008000000000000000000000001000000000000000000200000000004000000100000000000100000000000000000002000000020000000000000000802000000100000800004044000000000400000000002020200000020000000000000088000000000000000000004400008000008000000000000000000",
      "type": "0x2",
      "transactionHash": "0x9e9c73de48de5b8f5ed3fb6bd0c9ed795e92570d28c61c054f3c7bfdeb0d8f0c",
      "transactionIndex": "0xaa",
      "blockHash": "0x3e873225682987fc0e1a0e056bc096e7f57caac6bbf882ad49b275962795fbdd",
      "blockNumber": "0x1655ce7",
      "gasUsed": "0x7dbc9",
      "effectiveGasPrice": "0x1a94016d",
      "from": "0xb70649baf7a93eeb95e3946b3a82f8f312477d2b",
      "to": "0xbd216513d74c8cf14cf4747e6aaa6420ff64ee9e",
      "contractAddress": null
    }
  ],
  "libraries": [],
  "pending": [],
  "returns": {},
  "timestamp": 1758563055,
  "chain": 1,
  "commit": "6dbe119"
}