{
  "transactions": [
    {
      "hash": "0xc3815fd2a38dfe2459a81e19d87918ae9e9cfd4a7a8312b5e037e27b90d6e2c5",
      "transactionType": "CALL",
      "contractName": null,
      "contractAddress": "0x04b5480d64730bbe768454da930a0545babd437d",
      "function": "approve(address,uint256)",
      "arguments": [
        "0x000000000022D473030F116dDEE9F6B43aC78BA3",
        "115792089237316195423570985008687907853269984665640564039457584007913129639935"
      ],
      "transaction": {
        "from": "0xb70649baf7a93eeb95e3946b3a82f8f312477d2b",
        "to": "0x04b5480d64730bbe768454da930a0545babd437d",
        "gas": "0x8df2",
        "value": "0x0",
        "input": "0x095ea7b3000000000000000000000000000000000022d473030f116ddee9f6b43ac78ba3ffffffffffffffffffffffffffffffffffffffffffffffffffffffffffffffff",
        "nonce": "0x29",
        "chainId": "0x1"
      },
      "additionalContracts": [],
      "isFixedGasLimit": false
    },
    {
      "hash": "0x944b1448032d2ca4817880d9b314b04982cf460e322ec2211baceb86e2455081",
      "transactionType": "CALL",
      "contractName": null,
      "contractAddress": "0x000000000022d473030f116ddee9f6b43ac78ba3",
      "function": "approve(address,address,uint160,uint48)",
      "arguments": [
        "0x04B5480D64730bbE768454da930a0545BabD437d",
        "0xbD216513d74C8cf14cf4747E6AaA6420FF64ee9e",
        "1461501637330902918203684832716283019655932542975",
        "281474976710655"
      ],
      "transaction": {
        "from": "0xb70649baf7a93eeb95e3946b3a82f8f312477d2b",
        "to": "0x000000000022d473030f116ddee9f6b43ac78ba3",
        "gas": "0x96a0",
        "value": "0x0",
        "input": "0x87517c4500000000000000000000000004b5480d64730bbe768454da930a0545babd437d000000000000000000000000bd216513d74c8cf14cf4747e6aaa6420ff64ee9e000000000000000000000000ffffffffffffffffffffffffffffffffffffffff0000000000000000000000000000000000000000000000000000ffffffffffff",
        "nonce": "0x2a",
        "chainId": "0x1"
      },
      "additionalContracts": [],
      "isFixedGasLimit": false
    },
    {
      "hash": "0xa7676774914e01cbb147b0e7a87d19d503a1008955c15151f65ca4ed1dc4947c",
      "transactionType": "CALL",
      "contractName": null,
      "contractAddress": "0x86f9ef9f873f2f23a15d3eab53239b13bc33518c",
      "function": "approve(address,uint256)",
      "arguments": [
        "0x000000000022D473030F116dDEE9F6B43aC78BA3",
        "115792089237316195423570985008687907853269984665640564039457584007913129639935"
      ],
      "transaction": {
        "from": "0xb70649baf7a93eeb95e3946b3a82f8f312477d2b",
        "to": "0x86f9ef9f873f2f23a15d3eab53239b13bc33518c",
        "gas": "0x8df2",
        "value": "0x0",
        "input": "0x095ea7b3000000000000000000000000000000000022d473030f116ddee9f6b43ac78ba3ffffffffffffffffffffffffffffffffffffffffffffffffffffffffffffffff",
        "nonce": "0x2b",
        "chainId": "0x1"
      },
      "additionalContracts": [],
      "isFixedGasLimit": false
    },
    {
      "hash": "0x36a09525627972b5b7d0c3c85b684f70216dd5acf0220c62b5f7ffcac32cd6ae",
      "transactionType": "CALL",
      "contractName": null,
      "contractAddress": "0x000000000022d473030f116ddee9f6b43ac78ba3",
      "function": "approve(address,address,uint160,uint48)",
      "arguments": [
        "0x86f9EF9F873f2F23a15d3EaB53239B13BC33518C",
        "0xbD216513d74C8cf14cf4747E6AaA6420FF64ee9e",
        "1461501637330902918203684832716283019655932542975",
        "281474976710655"
      ],
      "transaction": {
        "from": "0xb70649baf7a93eeb95e3946b3a82f8f312477d2b",
        "to": "0x000000000022d473030f116ddee9f6b43ac78ba3",
        "gas": "0x96a0",
        "value": "0x0",
        "input": "0x87517c4500000000000000000000000086f9ef9f873f2f23a15d3eab53239b13bc33518c000000000000000000000000bd216513d74c8cf14cf4747e6aaa6420ff64ee9e000000000000000000000000ffffffffffffffffffffffffffffffffffffffff0000000000000000000000000000000000000000000000000000ffffffffffff",
        "nonce": "0x2c",
        "chainId": "0x1"
      },
      "additionalContracts": [],
      "isFixedGasLimit": false
    },
    {
      "hash": "0xcbb3d549dba4191003a47d355d0b1172e28511acabf093579e6f9d49481268aa",
      "transactionType": "CALL",
      "contractName": null,
      "contractAddress": "0xbd216513d74c8cf14cf4747e6aaa6420ff64ee9e",
      "function": "multicall(bytes[])",
      "arguments": [
        "[0xdd46508f00000000000000000000000000000000000000000000000000000000000000400000000000000000000000000000000000000000000000000000000068d19f8b0000000000000000000000000000000000000000000000000000000000000400000000000000000000000000000000000000000000000000000000000000004000000000000000000000000000000000000000000000000000000000000000800000000000000000000000000000000000000000000000000000000000000004020d14140000000000000000000000000000000000000000000000000000000000000000000000000000000000000000000000000000000000000000000000040000000000000000000000000000000000000000000000000000000000000080000000000000000000000000000000000000000000000000000000000000024000000000000000000000000000000000000000000000000000000000000002a0000000000000000000000000000000000000000000000000000000000000030000000000000000000000000000000000000000000000000000000000000001a000000000000000000000000004b5480d64730bbe768454da930a0545babd437d00000000000000000000000086f9ef9f873f2f23a15d3eab53239b13bc33518c0000000000000000000000000000000000000000000000000000000000000bb8000000000000000000000000000000000000000000000000000000000000003c00000000000000000000000052c73a3edc6e3d82ed675533144fd28886dccac0ffffffffffffffffffffffffffffffffffffffffffffffffffffffffffff5038000000000000000000000000000000000000000000000000000000000000afc80000000000000000000000000000000000000000000000000000000000aa914e00000000000000000000000000000000000000000000000000000000009896810000000000000000000000000000000000000000000000008ac7230489e80001000000000000000000000000b70649baf7a93eeb95e3946b3a82f8f312477d2b00000000000000000000000000000000000000000000000000000000000001800000000000000000000000000000000000000000000000000000000000000000000000000000000000000000000000000000000000000000000000000000004000000000000000000000000004b5480d64730bbe768454da930a0545babd437d00000000000000000000000086f9ef9f873f2f23a15d3eab53239b13bc33518c000000000000000000000000000000000000000000000000000000000000004000000000000000000000000004b5480d64730bbe768454da930a0545babd437d000000000000000000000000b70649baf7a93eeb95e3946b3a82f8f312477d2b000000000000000000000000000000000000000000000000000000000000004000000000000000000000000086f9ef9f873f2f23a15d3eab53239b13bc33518c000000000000000000000000b70649baf7a93eeb95e3946b3a82f8f312477d2b]"
      ],
      "transaction": {
        "from": "0xb70649baf7a93eeb95e3946b3a82f8f312477d2b",
        "to": "0xbd216513d74c8cf14cf4747e6aaa6420ff64ee9e",
        "gas": "0x54eea",
        "value": "0x0",
        "input": "0xac9650d80000000000000000000000000000000000000000000000000000000000000020000000000000000000000000000000000000000000000000000000000000000100000000000000000000000000000000000000000000000000000000000000200000000000000000000000000000000000000000000000000000000000000464dd46508f00000000000000000000000000000000000000000000000000000000000000400000000000000000000000000000000000000000000000000000000068d19f8b0000000000000000000000000000000000000000000000000000000000000400000000000000000000000000000000000000000000000000000000000000004000000000000000000000000000000000000000000000000000000000000000800000000000000000000000000000000000000000000000000000000000000004020d14140000000000000000000000000000000000000000000000000000000000000000000000000000000000000000000000000000000000000000000000040000000000000000000000000000000000000000000000000000000000000080000000000000000000000000000000000000000000000000000000000000024000000000000000000000000000000000000000000000000000000000000002a0000000000000000000000000000000000000000000000000000000000000030000000000000000000000000000000000000000000000000000000000000001a000000000000000000000000004b5480d64730bbe768454da930a0545babd437d00000000000000000000000086f9ef9f873f2f23a15d3eab53239b13bc33518c0000000000000000000000000000000000000000000000000000000000000bb8000000000000000000000000000000000000000000000000000000000000003c00000000000000000000000052c73a3edc6e3d82ed675533144fd28886dccac0ffffffffffffffffffffffffffffffffffffffffffffffffffffffffffff5038000000000000000000000000000000000000000000000000000000000000afc80000000000000000000000000000000000000000000000000000000000aa914e00000000000000000000000000000000000000000000000000000000009896810000000000000000000000000000000000000000000000008ac7230489e80001000000000000000000000000b70649baf7a93eeb95e3946b3a82f8f312477d2b00000000000000000000000000000000000000000000000000000000000001800000000000000000000000000000000000000000000000000000000000000000000000000000000000000000000000000000000000000000000000000000004000000000000000000000000004b5480d64730bbe768454da930a0545babd437d00000000000000000000000086f9ef9f873f2f23a15d3eab53239b13bc33518c000000000000000000000000000000000000000000000000000000000000004000000000000000000000000004b5480d64730bbe768454da930a0545babd437d000000000000000000000000b70649baf7a93eeb95e3946b3a82f8f312477d2b000000000000000000000000000000000000000000000000000000000000004000000000000000000000000086f9ef9f873f2f23a15d3eab53239b13bc33518c000000000000000000000000b70649baf7a93eeb95e3946b3a82f8f312477d2b00000000000000000000000000000000000000000000000000000000",
        "nonce": "0x2d",
        "chainId": "0x1"
      },
      "additionalContracts": [],
      "isFixedGasLimit": false
    }
  ],
  "receipts": [
    {
      "status": "0x1",
      "cumulativeGasUsed": "0x1140452",
      "logs": [
        {
          "address": "0x04b5480d64730bbe768454da930a0545babd437d",
          "topics": [
            "0x8c5be1e5ebec7d5bd14f71427d1e84f3dd0314c0f7b2291e5b200ac8c7c3b925",
            "0x000000000000000000000000b70649baf7a93eeb95e3946b3a82f8f312477d2b",
            "0x000000000000000000000000000000000022d473030f116ddee9f6b43ac78ba3"
          ],
          "data": "0xffffffffffffffffffffffffffffffffffffffffffffffffffffffffffffffff",
          "blockHash": "0x104f526315281f862a54bd321cb68ef3da99ca8a638e6829853a9626c1772b35",
          "blockNumber": "0x1655d75",
          "blockTimestamp": "0x68d1919f",
          "transactionHash": "0xc3815fd2a38dfe2459a81e19d87918ae9e9cfd4a7a8312b5e037e27b90d6e2c5",
          "transactionIndex": "0x91",
          "logIndex": "0x183",
          "removed": false
        }
      ],
      "logsBloom": "0x00000000000000000000000000000000000000000000000000000000000000000000000000000000000000000000000100000000800000000000000000200000000000000000000000004000000000000000000000000800000000000000000000000000000000000000000100080000000000000000000000000000000000000000000000000000000000000000000000000000000000000000000000000000020000000000000000000000000000000000000000002000000000000000000000000000000000000000000000000000000000000000000000020200000000000010000000000000000000000000000000000000000000000000000000000000",
      "type": "0x2",
      "transactionHash": "0xc3815fd2a38dfe2459a81e19d87918ae9e9cfd4a7a8312b5e037e27b90d6e2c5",
      "transactionIndex": "0x91",
      "blockHash": "0x104f526315281f862a54bd321cb68ef3da99ca8a638e6829853a9626c1772b35",
      "blockNumber": "0x1655d75",
      "gasUsed": "0x66c5",
      "effectiveGasPrice": "0x13a4a1c8",
      "from": "0xb70649baf7a93eeb95e3946b3a82f8f312477d2b",
      "to": "0x04b5480d64730bbe768454da930a0545babd437d",
      "contractAddress": null
    },
    {
      "status": "0x1",
      "cumulativeGasUsed": "0x1147160",
      "logs": [
        {
          "address": "0x000000000022d473030f116ddee9f6b43ac78ba3",
          "topics": [
            "0xda9fa7c1b00402c17d0161b249b1ab8bbec047c5a52207b9c112deffd817036b",
            "0x000000000000000000000000b70649baf7a93eeb95e3946b3a82f8f312477d2b",
            "0x00000000000000000000000004b5480d64730bbe768454da930a0545babd437d",
            "0x000000000000000000000000bd216513d74c8cf14cf4747e6aaa6420ff64ee9e"
          ],
          "data": "0x000000000000000000000000ffffffffffffffffffffffffffffffffffffffff0000000000000000000000000000000000000000000000000000ffffffffffff",
          "blockHash": "0x104f526315281f862a54bd321cb68ef3da99ca8a638e6829853a9626c1772b35",
          "blockNumber": "0x1655d75",
          "blockTimestamp": "0x68d1919f",
          "transactionHash": "0x944b1448032d2ca4817880d9b314b04982cf460e322ec2211baceb86e2455081",
          "transactionIndex": "0x92",
          "logIndex": "0x184",
          "removed": false
        }
      ],
      "logsBloom": "0x00010040000000000000000000010000000000000000000000000000000000000000000000000000000000000000000400000000000000000000000000080000000000000000000000000000000000000000000000000000000000000000000000000000000000000000000000080000000000000000000000000000100004000020000000000000000000000000000000000000000000000000000000000000000000000000000000000000000000000000000000002000000000080000000000000000000000000000000000000000000000000000000040000200000000000000000000000000000000000000000000400000000000000000000000000400",
      "type": "0x2",
      "transactionHash": "0x944b1448032d2ca4817880d9b314b04982cf460e322ec2211baceb86e2455081",
      "transactionIndex": "0x92",
      "blockHash": "0x104f526315281f862a54bd321cb68ef3da99ca8a638e6829853a9626c1772b35",
      "blockNumber": "0x1655d75",
      "gasUsed": "0x6d0e",
      "effectiveGasPrice": "0x13a4a1c8",
      "from": "0xb70649baf7a93eeb95e3946b3a82f8f312477d2b",
      "to": "0x000000000022d473030f116ddee9f6b43ac78ba3",
      "contractAddress": null
    },
    {
      "status": "0x1",
      "cumulativeGasUsed": "0x114d825",
      "logs": [
        {
          "address": "0x86f9ef9f873f2f23a15d3eab53239b13bc33518c",
          "topics": [
            "0x8c5be1e5ebec7d5bd14f71427d1e84f3dd0314c0f7b2291e5b200ac8c7c3b925",
            "0x000000000000000000000000b70649baf7a93eeb95e3946b3a82f8f312477d2b",
            "0x000000000000000000000000000000000022d473030f116ddee9f6b43ac78ba3"
          ],
          "data": "0xffffffffffffffffffffffffffffffffffffffffffffffffffffffffffffffff",
          "blockHash": "0x104f526315281f862a54bd321cb68ef3da99ca8a638e6829853a9626c1772b35",
          "blockNumber": "0x1655d75",
          "blockTimestamp": "0x68d1919f",
          "transactionHash": "0xa7676774914e01cbb147b0e7a87d19d503a1008955c15151f65ca4ed1dc4947c",
          "transactionIndex": "0x93",
          "logIndex": "0x185",
          "removed": false
        }
      ],
      "logsBloom": "0x00000000000000000000000000000000000000000000000000000000000000000000000000000000000000000000000000000000800000000000000000200000000000000000000000004000000000000000000000000800000000000000000000000000000000000000000000080000010000000000000000000000000000000000000000000000000000000000000000000000000000000000000000000000020000000000000000000000000000000000000000002000000000000000000000000000000000000000800000000000000000000000000002000200000000000010000000000000000000000000000000000000000000000000000000000000",
      "type": "0x2",
      "transactionHash": "0xa7676774914e01cbb147b0e7a87d19d503a1008955c15151f65ca4ed1dc4947c",
      "transactionIndex": "0x93",
      "blockHash": "0x104f526315281f862a54bd321cb68ef3da99ca8a638e6829853a9626c1772b35",
      "blockNumber": "0x1655d75",
      "gasUsed": "0x66c5",
      "effectiveGasPrice": "0x13a4a1c8",
      "from": "0xb70649baf7a93eeb95e3946b3a82f8f312477d2b",
      "to": "0x86f9ef9f873f2f23a15d3eab53239b13bc33518c",
      "contractAddress": null
    },
    {
      "status": "0x1",
      "cumulativeGasUsed": "0x1154533",
      "logs": [
        {
          "address": "0x000000000022d473030f116ddee9f6b43ac78ba3",
          "topics": [
            "0xda9fa7c1b00402c17d0161b249b1ab8bbec047c5a52207b9c112deffd817036b",
            "0x000000000000000000000000b70649baf7a93eeb95e3946b3a82f8f312477d2b",
            "0x00000000000000000000000086f9ef9f873f2f23a15d3eab53239b13bc33518c",
            "0x000000000000000000000000bd216513d74c8cf14cf4747e6aaa6420ff64ee9e"
          ],
          "data": "0x000000000000000000000000ffffffffffffffffffffffffffffffffffffffff0000000000000000000000000000000000000000000000000000ffffffffffff",
          "blockHash": "0x104f526315281f862a54bd321cb68ef3da99ca8a638e6829853a9626c1772b35",
          "blockNumber": "0x1655d75",
          "blockTimestamp": "0x68d1919f",
          "transactionHash": "0x36a09525627972b5b7d0c3c85b684f70216dd5acf0220c62b5f7ffcac32cd6ae",
          "transactionIndex": "0x94",
          "logIndex": "0x186",
          "removed": false
        }
      ],
      "logsBloom": "0x00010040000000000000000000000000000000000000000000000000000000000000000000000000000000000000000400000000000000000000000000080000008000000000000000000000000000000000000000000000000000000000000000000000000000000000000000080000000000000000000000000000100000000020000000000000000000000000000000000000000000000000000000000000000000000000000000000000000000000000000000002000000020080000000000000000000000000000000000040000000000000000000040000200000000000000000000000000000000000000000000000000000000000000000000000400",
      "type": "0x2",
      "transactionHash": "0x36a09525627972b5b7d0c3c85b684f70216dd5acf0220c62b5f7ffcac32cd6ae",
      "transactionIndex": "0x94",
      "blockHash": "0x104f526315281f862a54bd321cb68ef3da99ca8a638e6829853a9626c1772b35",
      "blockNumber": "0x1655d75",
      "gasUsed": "0x6d0e",
      "effectiveGasPrice": "0x13a4a1c8",
      "from": "0xb70649baf7a93eeb95e3946b3a82f8f312477d2b",
      "to": "0x000000000022d473030f116ddee9f6b43ac78ba3",
      "contractAddress": null
    },
    {
      "status": "0x1",
      "cumulativeGasUsed": "0x180031a",
      "logs": [
        {
          "address": "0xbd216513d74c8cf14cf4747e6aaa6420ff64ee9e",
          "topics": [
            "0xddf252ad1be2c89b69c2b068fc378daa952ba7f163c4a11628f55a4df523b3ef",
            "0x0000000000000000000000000000000000000000000000000000000000000000",
            "0x000000000000000000000000b70649baf7a93eeb95e3946b3a82f8f312477d2b",
            "0x0000000000000000000000000000000000000000000000000000000000010e01"
          ],
          "data": "0x",
          "blockHash": "0xbd2ee6b4ad0bbe1e1cbb8761e9e49cc5dc8eb8542bf1df7d1bc9c5b3b01a45e9",
          "blockNumber": "0x1655d76",
          "blockTimestamp": "0x68d191ab",
          "transactionHash": "0xcbb3d549dba4191003a47d355d0b1172e28511acabf093579e6f9d49481268aa",
          "transactionIndex": "0x11a",
          "logIndex": "0x23a",
          "removed": false
        },
        {
          "address": "0x52c73a3edc6e3d82ed675533144fd28886dccac0",
          "topics": [
            "0xe4f4dfad1e4128943809bc23077ed765f12b98ec17ea4a5adc9657cc762d319c",
            "0x477a4bdfe57f93e32c5a0b4a5c3db55d7ca916fa79d2b0de48d69d3bd4d9a492"
          ],
          "data": "0x0000000000000000000000000000000000000000000000000000000000aa914e0000000000000000000000000000000000000000000000000000000000000001",
          "blockHash": "0xbd2ee6b4ad0bbe1e1cbb8761e9e49cc5dc8eb8542bf1df7d1bc9c5b3b01a45e9",
          "blockNumber": "0x1655d76",
          "blockTimestamp": "0x68d191ab",
          "transactionHash": "0xcbb3d549dba4191003a47d355d0b1172e28511acabf093579e6f9d49481268aa",
          "transactionIndex": "0x11a",
          "logIndex": "0x23b",
          "removed": false
        },
        {
          "address": "0x000000000004444c5dc75cb358380d2e3de08a90",
          "topics": [
            "0xf208f4912782fd25c7f114ca3723a2d5dd6f3bcc3ac8db5af63baa85f711d5ec",
            "0x477a4bdfe57f93e32c5a0b4a5c3db55d7ca916fa79d2b0de48d69d3bd4d9a492",
            "0x000000000000000000000000bd216513d74c8cf14cf4747e6aaa6420ff64ee9e"
          ],
          "data": "0xffffffffffffffffffffffffffffffffffffffffffffffffffffffffffff5038000000000000000000000000000000000000000000000000000000000000afc80000000000000000000000000000000000000000000000000000000000aa914e0000000000000000000000000000000000000000000000000000000000010e01",
          "blockHash": "0xbd2ee6b4ad0bbe1e1cbb8761e9e49cc5dc8eb8542bf1df7d1bc9c5b3b01a45e9",
          "blockNumber": "0x1655d76",
          "blockTimestamp": "0x68d191ab",
          "transactionHash": "0xcbb3d549dba4191003a47d355d0b1172e28511acabf093579e6f9d49481268aa",
          "transactionIndex": "0x11a",
          "logIndex": "0x23c",
          "removed": false
        },
        {
          "address": "0x04b5480d64730bbe768454da930a0545babd437d",
          "topics": [
            "0xddf252ad1be2c89b69c2b068fc378daa952ba7f163c4a11628f55a4df523b3ef",
            "0x000000000000000000000000b70649baf7a93eeb95e3946b3a82f8f312477d2b",
            "0x000000000000000000000000000000000004444c5dc75cb358380d2e3de08a90"
          ],
          "data": "0x0000000000000000000000000000000000000000000000000000000000989680",
          "blockHash": "0xbd2ee6b4ad0bbe1e1cbb8761e9e49cc5dc8eb8542bf1df7d1bc9c5b3b01a45e9",
          "blockNumber": "0x1655d76",
          "blockTimestamp": "0x68d191ab",
          "transactionHash": "0xcbb3d549dba4191003a47d355d0b1172e28511acabf093579e6f9d49481268aa",
          "transactionIndex": "0x11a",
          "logIndex": "0x23d",
          "removed": false
        },
        {
          "address": "0x86f9ef9f873f2f23a15d3eab53239b13bc33518c",
          "topics": [
            "0xddf252ad1be2c89b69c2b068fc378daa952ba7f163c4a11628f55a4df523b3ef",
            "0x000000000000000000000000b70649baf7a93eeb95e3946b3a82f8f312477d2b",
            "0x000000000000000000000000000000000004444c5dc75cb358380d2e3de08a90"
          ],
          "data": "0x0000000000000000000000000000000000000000000000000000000000989680",
          "blockHash": "0xbd2ee6b4ad0bbe1e1cbb8761e9e49cc5dc8eb8542bf1df7d1bc9c5b3b01a45e9",
          "blockNumber": "0x1655d76",
          "blockTimestamp": "0x68d191ab",
          "transactionHash": "0xcbb3d549dba4191003a47d355d0b1172e28511acabf093579e6f9d49481268aa",
          "transactionIndex": "0x11a",
          "logIndex": "0x23e",
          "removed": false
        }
      ],
      "logsBloom": "0x00000040000000000000000000000000000010000000000000000000002000000000000020000000001000010000000500000008000000000000000000000000002000000000000000000008000000000000000000000000000000000000000000000000020000000000000100080c00010000080000000000000010100008000000000801000000000000000000000000000000000000000000000000000000000004000000100000000000100000000000000000002000000000000000000000000802000000100000800004000000000000400000000002020200000020000000000000088000000000000000000004000008000008000000000000000000",
      "type": "0x2",
      "transactionHash": "0xcbb3d549dba4191003a47d355d0b1172e28511acabf093579e6f9d49481268aa",
      "transactionIndex": "0x11a",
      "blockHash": "0xbd2ee6b4ad0bbe1e1cbb8761e9e49cc5dc8eb8542bf1df7d1bc9c5b3b01a45e9",
      "blockNumber": "0x1655d76",
      "gasUsed": "0x3d7d5",
      "effectiveGasPrice": "0x1359b88a",
      "from": "0xb70649baf7a93eeb95e3946b3a82f8f312477d2b",
      "to": "0xbd216513d74c8cf14cf4747e6aaa6420ff64ee9e",
      "contractAddress": null
    }
  ],
  "libraries": [],
  "pending": [],
  "returns": {},
  "timestamp": 1758564783,
  "chain": 1,
  "commit": "6dbe119"
}