{
  "transactions": [
    {
      "hash": "0xb0d625e50aa4a5eb13e66aacf86b7009f9837fd2f77ef34201fbb39f8114a0bc",
      "transactionType": "CALL",
      "contractName": null,
      "contractAddress": "0x04b5480d64730bbe768454da930a0545babd437d",
      "function": "approve(address,uint256)",
      "arguments": [
        "0x000000000022D473030F116dDEE9F6B43aC78BA3",
        "115792089237316195423570985008687907853269984665640564039457584007913129639935"
      ],
      "transaction": {
        "from": "0xb70649baf7a93eeb95e3946b3a82f8f312477d2b",
        "to": "0x04b5480d64730bbe768454da930a0545babd437d",
        "gas": "0x8df2",
        "value": "0x0",
        "input": "0x095ea7b3000000000000000000000000000000000022d473030f116ddee9f6b43ac78ba3ffffffffffffffffffffffffffffffffffffffffffffffffffffffffffffffff",
        "nonce": "0x2e",
        "chainId": "0x1"
      },
      "additionalContracts": [],
      "isFixedGasLimit": false
    },
    {
      "hash": "0xf18208255c97b01f8f3a7a35d1fe44af3f01a8cc405157c8f951462443f846f8",
      "transactionType": "CALL",
      "contractName": null,
      "contractAddress": "0x000000000022d473030f116ddee9f6b43ac78ba3",
      "function": "approve(address,address,uint160,uint48)",
      "arguments": [
        "0x04B5480D64730bbE768454da930a0545BabD437d",
        "0xbD216513d74C8cf14cf4747E6AaA6420FF64ee9e",
        "1461501637330902918203684832716283019655932542975",
        "281474976710655"
      ],
      "transaction": {
        "from": "0xb70649baf7a93eeb95e3946b3a82f8f312477d2b",
        "to": "0x000000000022d473030f116ddee9f6b43ac78ba3",
        "gas": "0x96a0",
        "value": "0x0",
        "input": "0x87517c4500000000000000000000000004b5480d64730bbe768454da930a0545babd437d000000000000000000000000bd216513d74c8cf14cf4747e6aaa6420ff64ee9e000000000000000000000000ffffffffffffffffffffffffffffffffffffffff0000000000000000000000000000000000000000000000000000ffffffffffff",
        "nonce": "0x2f",
        "chainId": "0x1"
      },
      "additionalContracts": [],
      "isFixedGasLimit": false
    },
    {
      "hash": "0x1f76ef7d101bb8b1a62df1c8fc3f1b216fbde01dd45787c63938af7fdbcf48c2",
      "transactionType": "CALL",
      "contractName": null,
      "contractAddress": "0x86f9ef9f873f2f23a15d3eab53239b13bc33518c",
      "function": "approve(address,uint256)",
      "arguments": [
        "0x000000000022D473030F116dDEE9F6B43aC78BA3",
        "115792089237316195423570985008687907853269984665640564039457584007913129639935"
      ],
      "transaction": {
        "from": "0xb70649baf7a93eeb95e3946b3a82f8f312477d2b",
        "to": "0x86f9ef9f873f2f23a15d3eab53239b13bc33518c",
        "gas": "0x8df2",
        "value": "0x0",
        "input": "0x095ea7b3000000000000000000000000000000000022d473030f116ddee9f6b43ac78ba3ffffffffffffffffffffffffffffffffffffffffffffffffffffffffffffffff",
        "nonce": "0x30",
        "chainId": "0x1"
      },
      "additionalContracts": [],
      "isFixedGasLimit": false
    },
    {
      "hash": "0xb132900834fdb75efa3b51226c0619592b720655ae8d3437b8c68e25fe913d9e",
      "transactionType": "CALL",
      "contractName": null,
      "contractAddress": "0x000000000022d473030f116ddee9f6b43ac78ba3",
      "function": "approve(address,address,uint160,uint48)",
      "arguments": [
        "0x86f9EF9F873f2F23a15d3EaB53239B13BC33518C",
        "0xbD216513d74C8cf14cf4747E6AaA6420FF64ee9e",
        "1461501637330902918203684832716283019655932542975",
        "281474976710655"
      ],
      "transaction": {
        "from": "0xb70649baf7a93eeb95e3946b3a82f8f312477d2b",
        "to": "0x000000000022d473030f116ddee9f6b43ac78ba3",
        "gas": "0x96a0",
        "value": "0x0",
        "input": "0x87517c4500000000000000000000000086f9ef9f873f2f23a15d3eab53239b13bc33518c000000000000000000000000bd216513d74c8cf14cf4747e6aaa6420ff64ee9e000000000000000000000000ffffffffffffffffffffffffffffffffffffffff0000000000000000000000000000000000000000000000000000ffffffffffff",
        "nonce": "0x31",
        "chainId": "0x1"
      },
      "additionalContracts": [],
      "isFixedGasLimit": false
    },
    {
      "hash": "0xbda5719f37459890d7be09d3ed7bad1d86259896abe2de3d5e443a8cb36a734c",
      "transactionType": "CALL",
      "contractName": null,
      "contractAddress": "0xbd216513d74c8cf14cf4747e6aaa6420ff64ee9e",
      "function": "multicall(bytes[])",
      "arguments": [
        "[0xdd46508f00000000000000000000000000000000000000000000000000000000000000400000000000000000000000000000000000000000000000000000000068d1a2970000000000000000000000000000000000000000000000000000000000000400000000000000000000000000000000000000000000000000000000000000004000000000000000000000000000000000000000000000000000000000000000800000000000000000000000000000000000000000000000000000000000000004020d14140000000000000000000000000000000000000000000000000000000000000000000000000000000000000000000000000000000000000000000000040000000000000000000000000000000000000000000000000000000000000080000000000000000000000000000000000000000000000000000000000000024000000000000000000000000000000000000000000000000000000000000002a0000000000000000000000000000000000000000000000000000000000000030000000000000000000000000000000000000000000000000000000000000001a000000000000000000000000004b5480d64730bbe768454da930a0545babd437d00000000000000000000000086f9ef9f873f2f23a15d3eab53239b13bc33518c0000000000000000000000000000000000000000000000000000000000000bb8000000000000000000000000000000000000000000000000000000000000003c00000000000000000000000052c73a3edc6e3d82ed675533144fd28886dccac0ffffffffffffffffffffffffffffffffffffffffffffffffffffffffffff5038000000000000000000000000000000000000000000000000000000000000afc80000000000000000000000000000000000000000000000009b215d996a6e56310000000000000000000000000000000000000000000000008ac7230489e800010000000000000000000000000000000000000000000000008ac7230489e80001000000000000000000000000b70649baf7a93eeb95e3946b3a82f8f312477d2b00000000000000000000000000000000000000000000000000000000000001800000000000000000000000000000000000000000000000000000000000000000000000000000000000000000000000000000000000000000000000000000004000000000000000000000000004b5480d64730bbe768454da930a0545babd437d00000000000000000000000086f9ef9f873f2f23a15d3eab53239b13bc33518c000000000000000000000000000000000000000000000000000000000000004000000000000000000000000004b5480d64730bbe768454da930a0545babd437d000000000000000000000000b70649baf7a93eeb95e3946b3a82f8f312477d2b000000000000000000000000000000000000000000000000000000000000004000000000000000000000000086f9ef9f873f2f23a15d3eab53239b13bc33518c000000000000000000000000b70649baf7a93eeb95e3946b3a82f8f312477d2b]"
      ],
      "transaction": {
        "from": "0xb70649baf7a93eeb95e3946b3a82f8f312477d2b",
        "to": "0xbd216513d74c8cf14cf4747e6aaa6420ff64ee9e",
        "gas": "0x550cf",
        "value": "0x0",
        "input": "0xac9650d80000000000000000000000000000000000000000000000000000000000000020000000000000000000000000000000000000000000000000000000000000000100000000000000000000000000000000000000000000000000000000000000200000000000000000000000000000000000000000000000000000000000000464dd46508f00000000000000000000000000000000000000000000000000000000000000400000000000000000000000000000000000000000000000000000000068d1a2970000000000000000000000000000000000000000000000000000000000000400000000000000000000000000000000000000000000000000000000000000004000000000000000000000000000000000000000000000000000000000000000800000000000000000000000000000000000000000000000000000000000000004020d14140000000000000000000000000000000000000000000000000000000000000000000000000000000000000000000000000000000000000000000000040000000000000000000000000000000000000000000000000000000000000080000000000000000000000000000000000000000000000000000000000000024000000000000000000000000000000000000000000000000000000000000002a0000000000000000000000000000000000000000000000000000000000000030000000000000000000000000000000000000000000000000000000000000001a000000000000000000000000004b5480d64730bbe768454da930a0545babd437d00000000000000000000000086f9ef9f873f2f23a15d3eab53239b13bc33518c0000000000000000000000000000000000000000000000000000000000000bb8000000000000000000000000000000000000000000000000000000000000003c00000000000000000000000052c73a3edc6e3d82ed675533144fd28886dccac0ffffffffffffffffffffffffffffffffffffffffffffffffffffffffffff5038000000000000000000000000000000000000000000000000000000000000afc80000000000000000000000000000000000000000000000009b215d996a6e56310000000000000000000000000000000000000000000000008ac7230489e800010000000000000000000000000000000000000000000000008ac7230489e80001000000000000000000000000b70649baf7a93eeb95e3946b3a82f8f312477d2b00000000000000000000000000000000000000000000000000000000000001800000000000000000000000000000000000000000000000000000000000000000000000000000000000000000000000000000000000000000000000000000004000000000000000000000000004b5480d64730bbe768454da930a0545babd437d00000000000000000000000086f9ef9f873f2f23a15d3eab53239b13bc33518c000000000000000000000000000000000000000000000000000000000000004000000000000000000000000004b5480d64730bbe768454da930a0545babd437d000000000000000000000000b70649baf7a93eeb95e3946b3a82f8f312477d2b000000000000000000000000000000000000000000000000000000000000004000000000000000000000000086f9ef9f873f2f23a15d3eab53239b13bc33518c000000000000000000000000b70649baf7a93eeb95e3946b3a82f8f312477d2b00000000000000000000000000000000000000000000000000000000",
        "nonce": "0x32",
        "chainId": "0x1"
      },
      "additionalContracts": [],
      "isFixedGasLimit": false
    }
  ],
  "receipts": [
    {
      "status": "0x1",
      "cumulativeGasUsed": "0x14d8a3b",
      "logs": [
        {
          "address": "0x04b5480d64730bbe768454da930a0545babd437d",
          "topics": [
            "0x8c5be1e5ebec7d5bd14f71427d1e84f3dd0314c0f7b2291e5b200ac8c7c3b925",
            "0x000000000000000000000000b70649baf7a93eeb95e3946b3a82f8f312477d2b",
            "0x000000000000000000000000000000000022d473030f116ddee9f6b43ac78ba3"
          ],
          "data": "0xffffffffffffffffffffffffffffffffffffffffffffffffffffffffffffffff",
          "blockHash": "0x5a4cd261a0fdf6557da6a64b5eea043cacd5bddf5d9e8104af9d5677187d04aa",
          "blockNumber": "0x1655db6",
          "blockTimestamp": "0x68d194ab",
          "transactionHash": "0xb0d625e50aa4a5eb13e66aacf86b7009f9837fd2f77ef34201fbb39f8114a0bc",
          "transactionIndex": "0xd0",
          "logIndex": "0x25d",
          "removed": false
        }
      ],
      "logsBloom": "0x00000000000000000000000000000000000000000000000000000000000000000000000000000000000000000000000100000000800000000000000000200000000000000000000000004000000000000000000000000800000000000000000000000000000000000000000100080000000000000000000000000000000000000000000000000000000000000000000000000000000000000000000000000000020000000000000000000000000000000000000000002000000000000000000000000000000000000000000000000000000000000000000000020200000000000010000000000000000000000000000000000000000000000000000000000000",
      "type": "0x2",
      "transactionHash": "0xb0d625e50aa4a5eb13e66aacf86b7009f9837fd2f77ef34201fbb39f8114a0bc",
      "transactionIndex": "0xd0",
      "blockHash": "0x5a4cd261a0fdf6557da6a64b5eea043cacd5bddf5d9e8104af9d5677187d04aa",
      "blockNumber": "0x1655db6",
      "gasUsed": "0x66c5",
      "effectiveGasPrice": "0x129ef7cb",
      "from": "0xb70649baf7a93eeb95e3946b3a82f8f312477d2b",
      "to": "0x04b5480d64730bbe768454da930a0545babd437d",
      "contractAddress": null
    },
    {
      "status": "0x1",
      "cumulativeGasUsed": "0x1f15284",
      "logs": [
        {
          "address": "0x000000000022d473030f116ddee9f6b43ac78ba3",
          "topics": [
            "0xda9fa7c1b00402c17d0161b249b1ab8bbec047c5a52207b9c112deffd817036b",
            "0x000000000000000000000000b70649baf7a93eeb95e3946b3a82f8f312477d2b",
            "0x00000000000000000000000004b5480d64730bbe768454da930a0545babd437d",
            "0x000000000000000000000000bd216513d74c8cf14cf4747e6aaa6420ff64ee9e"
          ],
          "data": "0x000000000000000000000000ffffffffffffffffffffffffffffffffffffffff0000000000000000000000000000000000000000000000000000ffffffffffff",
          "blockHash": "0x0a312fc08779d0d310e149b3d83ce39d13e0d8f82ef698cd4b88fd6760904f7e",
          "blockNumber": "0x1655db7",
          "blockTimestamp": "0x68d194b7",
          "transactionHash": "0xf18208255c97b01f8f3a7a35d1fe44af3f01a8cc405157c8f951462443f846f8",
          "transactionIndex": "0x1ff",
          "logIndex": "0x28d",
          "removed": false
        }
      ],
      "logsBloom": "0x00010040000000000000000000010000000000000000000000000000000000000000000000000000000000000000000400000000000000000000000000080000000000000000000000000000000000000000000000000000000000000000000000000000000000000000000000080000000000000000000000000000100004000020000000000000000000000000000000000000000000000000000000000000000000000000000000000000000000000000000000002000000000080000000000000000000000000000000000000000000000000000000040000200000000000000000000000000000000000000000000400000000000000000000000000400",
      "type": "0x2",
      "transactionHash": "0xf18208255c97b01f8f3a7a35d1fe44af3f01a8cc405157c8f951462443f846f8",
      "transactionIndex": "0x1ff",
      "blockHash": "0x0a312fc08779d0d310e149b3d83ce39d13e0d8f82ef698cd4b88fd6760904f7e",
      "blockNumber": "0x1655db7",
      "gasUsed": "0x6d0e",
      "effectiveGasPrice": "0x13322303",
      "from": "0xb70649baf7a93eeb95e3946b3a82f8f312477d2b",
      "to": "0x000000000022d473030f116ddee9f6b43ac78ba3",
      "contractAddress": null
    },
    {
      "status": "0x1",
      "cumulativeGasUsed": "0x1f1b949",
      "logs": [
        {
          "address": "0x86f9ef9f873f2f23a15d3eab53239b13bc33518c",
          "topics": [
            "0x8c5be1e5ebec7d5bd14f71427d1e84f3dd0314c0f7b2291e5b200ac8c7c3b925",
            "0x000000000000000000000000b70649baf7a93eeb95e3946b3a82f8f312477d2b",
            "0x000000000000000000000000000000000022d473030f116ddee9f6b43ac78ba3"
          ],
          "data": "0xffffffffffffffffffffffffffffffffffffffffffffffffffffffffffffffff",
          "blockHash": "0x0a312fc08779d0d310e149b3d83ce39d13e0d8f82ef698cd4b88fd6760904f7e",
          "blockNumber": "0x1655db7",
          "blockTimestamp": "0x68d194b7",
          "transactionHash": "0x1f76ef7d101bb8b1a62df1c8fc3f1b216fbde01dd45787c63938af7fdbcf48c2",
          "transactionIndex": "0x200",
          "logIndex": "0x28e",
          "removed": false
        }
      ],
      "logsBloom": "0x00000000000000000000000000000000000000000000000000000000000000000000000000000000000000000000000000000000800000000000000000200000000000000000000000004000000000000000000000000800000000000000000000000000000000000000000000080000010000000000000000000000000000000000000000000000000000000000000000000000000000000000000000000000020000000000000000000000000000000000000000002000000000000000000000000000000000000000800000000000000000000000000002000200000000000010000000000000000000000000000000000000000000000000000000000000",
      "type": "0x2",
      "transactionHash": "0x1f76ef7d101bb8b1a62df1c8fc3f1b216fbde01dd45787c63938af7fdbcf48c2",
      "transactionIndex": "0x200",
      "blockHash": "0x0a312fc08779d0d310e149b3d83ce39d13e0d8f82ef698cd4b88fd6760904f7e",
      "blockNumber": "0x1655db7",
      "gasUsed": "0x66c5",
      "effectiveGasPrice": "0x13322303",
      "from": "0xb70649baf7a93eeb95e3946b3a82f8f312477d2b",
      "to": "0x86f9ef9f873f2f23a15d3eab53239b13bc33518c",
      "contractAddress": null
    },
    {
      "status": "0x1",
      "cumulativeGasUsed": "0x11ac2db",
      "logs": [
        {
          "address": "0x000000000022d473030f116ddee9f6b43ac78ba3",
          "topics": [
            "0xda9fa7c1b00402c17d0161b249b1ab8bbec047c5a52207b9c112deffd817036b",
            "0x000000000000000000000000b70649baf7a93eeb95e3946b3a82f8f312477d2b",
            "0x00000000000000000000000086f9ef9f873f2f23a15d3eab53239b13bc33518c",
            "0x000000000000000000000000bd216513d74c8cf14cf4747e6aaa6420ff64ee9e"
          ],
          "data": "0x000000000000000000000000ffffffffffffffffffffffffffffffffffffffff0000000000000000000000000000000000000000000000000000ffffffffffff",
          "blockHash": "0xc2cc39e0489441930c76ef60e62e4cff728a48e70b7c4c65245156e245a98410",
          "blockNumber": "0x1655db8",
          "blockTimestamp": "0x68d194c3",
          "transactionHash": "0xb132900834fdb75efa3b51226c0619592b720655ae8d3437b8c68e25fe913d9e",
          "transactionIndex": "0xe3",
          "logIndex": "0x1ca",
          "removed": false
        }
      ],
      "logsBloom": "0x00010040000000000000000000000000000000000000000000000000000000000000000000000000000000000000000400000000000000000000000000080000008000000000000000000000000000000000000000000000000000000000000000000000000000000000000000080000000000000000000000000000100000000020000000000000000000000000000000000000000000000000000000000000000000000000000000000000000000000000000000002000000020080000000000000000000000000000000000040000000000000000000040000200000000000000000000000000000000000000000000000000000000000000000000000400",
      "type": "0x2",
      "transactionHash": "0xb132900834fdb75efa3b51226c0619592b720655ae8d3437b8c68e25fe913d9e",
      "transactionIndex": "0xe3",
      "blockHash": "0xc2cc39e0489441930c76ef60e62e4cff728a48e70b7c4c65245156e245a98410",
      "blockNumber": "0x1655db8",
      "gasUsed": "0x6d0e",
      "effectiveGasPrice": "0x14c92ac9",
      "from": "0xb70649baf7a93eeb95e3946b3a82f8f312477d2b",
      "to": "0x000000000022d473030f116ddee9f6b43ac78ba3",
      "contractAddress": null
    },
    {
      "status": "0x1",
      "cumulativeGasUsed": "0xcfc5a2",
      "logs": [
        {
          "address": "0xbd216513d74c8cf14cf4747e6aaa6420ff64ee9e",
          "topics": [
            "0xddf252ad1be2c89b69c2b068fc378daa952ba7f163c4a11628f55a4df523b3ef",
            "0x0000000000000000000000000000000000000000000000000000000000000000",
            "0x000000000000000000000000b70649baf7a93eeb95e3946b3a82f8f312477d2b",
            "0x0000000000000000000000000000000000000000000000000000000000010e05"
          ],
          "data": "0x",
          "blockHash": "0x891a2231ea663f1da53b28193285c00039f51379b88c3c3941950c0c5c7c8315",
          "blockNumber": "0x1655db9",
          "blockTimestamp": "0x68d194cf",
          "transactionHash": "0xbda5719f37459890d7be09d3ed7bad1d86259896abe2de3d5e443a8cb36a734c",
          "transactionIndex": "0xa5",
          "logIndex": "0x15f",
          "removed": false
        },
        {
          "address": "0x52c73a3edc6e3d82ed675533144fd28886dccac0",
          "topics": [
            "0xe4f4dfad1e4128943809bc23077ed765f12b98ec17ea4a5adc9657cc762d319c",
            "0x477a4bdfe57f93e32c5a0b4a5c3db55d7ca916fa79d2b0de48d69d3bd4d9a492"
          ],
          "data": "0x0000000000000000000000000000000000000000000000009b215d996a6e56310000000000000000000000000000000000000000000000000000000000000001",
          "blockHash": "0x891a2231ea663f1da53b28193285c00039f51379b88c3c3941950c0c5c7c8315",
          "blockNumber": "0x1655db9",
          "blockTimestamp": "0x68d194cf",
          "transactionHash": "0xbda5719f37459890d7be09d3ed7bad1d86259896abe2de3d5e443a8cb36a734c",
          "transactionIndex": "0xa5",
          "logIndex": "0x160",
          "removed": false
        },
        {
          "address": "0x000000000004444c5dc75cb358380d2e3de08a90",
          "topics": [
            "0xf208f4912782fd25c7f114ca3723a2d5dd6f3bcc3ac8db5af63baa85f711d5ec",
            "0x477a4bdfe57f93e32c5a0b4a5c3db55d7ca916fa79d2b0de48d69d3bd4d9a492",
            "0x000000000000000000000000bd216513d74c8cf14cf4747e6aaa6420ff64ee9e"
          ],
          "data": "0xffffffffffffffffffffffffffffffffffffffffffffffffffffffffffff5038000000000000000000000000000000000000000000000000000000000000afc80000000000000000000000000000000000000000000000009b215d996a6e56310000000000000000000000000000000000000000000000000000000000010e05",
          "blockHash": "0x891a2231ea663f1da53b28193285c00039f51379b88c3c3941950c0c5c7c8315",
          "blockNumber": "0x1655db9",
          "blockTimestamp": "0x68d194cf",
          "transactionHash": "0xbda5719f37459890d7be09d3ed7bad1d86259896abe2de3d5e443a8cb36a734c",
          "transactionIndex": "0xa5",
          "logIndex": "0x161",
          "removed": false
        },
        {
          "address": "0x04b5480d64730bbe768454da930a0545babd437d",
          "topics": [
            "0xddf252ad1be2c89b69c2b068fc378daa952ba7f163c4a11628f55a4df523b3ef",
            "0x000000000000000000000000b70649baf7a93eeb95e3946b3a82f8f312477d2b",
            "0x000000000000000000000000000000000004444c5dc75cb358380d2e3de08a90"
          ],
          "data": "0x0000000000000000000000000000000000000000000000008ac7230489e80000",
          "blockHash": "0x891a2231ea663f1da53b28193285c00039f51379b88c3c3941950c0c5c7c8315",
          "blockNumber": "0x1655db9",
          "blockTimestamp": "0x68d194cf",
          "transactionHash": "0xbda5719f37459890d7be09d3ed7bad1d86259896abe2de3d5e443a8cb36a734c",
          "transactionIndex": "0xa5",
          "logIndex": "0x162",
          "removed": false
        },
        {
          "address": "0x86f9ef9f873f2f23a15d3eab53239b13bc33518c",
          "topics": [
            "0xddf252ad1be2c89b69c2b068fc378daa952ba7f163c4a11628f55a4df523b3ef",
            "0x000000000000000000000000b70649baf7a93eeb95e3946b3a82f8f312477d2b",
            "0x000000000000000000000000000000000004444c5dc75cb358380d2e3de08a90"
          ],
          "data": "0x0000000000000000000000000000000000000000000000008ac7230489e80000",
          "blockHash": "0x891a2231ea663f1da53b28193285c00039f51379b88c3c3941950c0c5c7c8315",
          "blockNumber": "0x1655db9",
          "blockTimestamp": "0x68d194cf",
          "transactionHash": "0xbda5719f37459890d7be09d3ed7bad1d86259896abe2de3d5e443a8cb36a734c",
          "transactionIndex": "0xa5",
          "logIndex": "0x163",
          "removed": false
        }
      ],
      "logsBloom": "0x00000040000000000000008000000000000010000000000000000000000000000000000020000000001000000000000500000008000000000000000000000000002000000000000000000008000000000000000000000000000000000000000000000000020000000000000100080800010000080000000000000010100008000000000801000000000000000000000000000000000000000000000000000000000004000000100000000000100000000000000000002000000000000000000000000802000000100000800004000000000000400000000002020200002020000000000000088000000000000000000004000008004008000000000000000000",
      "type": "0x2",
      "transactionHash": "0xbda5719f37459890d7be09d3ed7bad1d86259896abe2de3d5e443a8cb36a734c",
      "transactionIndex": "0xa5",
      "blockHash": "0x891a2231ea663f1da53b28193285c00039f51379b88c3c3941950c0c5c7c8315",
      "blockNumber": "0x1655db9",
      "gasUsed": "0x3d934",
      "effectiveGasPrice": "0x152ba6c8",
      "from": "0xb70649baf7a93eeb95e3946b3a82f8f312477d2b",
      "to": "0xbd216513d74c8cf14cf4747e6aaa6420ff64ee9e",
      "contractAddress": null
    }
  ],
  "libraries": [],
  "pending": [],
  "returns": {},
  "timestamp": 1758565587,
  "chain": 1,
  "commit": "6dbe119"
}