{
  "transactions": [
    {
      "hash": "0x40de719df08bacfb553e1d47b5b743eecfd5190290db006771926b6e6cfa371d",
      "transactionType": "CALL",
      "contractName": null,
      "contractAddress": "0x08210f9170f89ab7658f0b5e3ff39b0e03c594d4",
      "function": "approve(address,uint256)",
      "arguments": [
        "0x000000000022D473030F116dDEE9F6B43aC78BA3",
        "115792089237316195423570985008687907853269984665640564039457584007913129639935"
      ],
      "transaction": {
        "from": "0xb70649baf7a93eeb95e3946b3a82f8f312477d2b",
        "to": "0x08210f9170f89ab7658f0b5e3ff39b0e03c594d4",
        "gas": "0xdca8",
        "value": "0x0",
        "input": "0x095ea7b3000000000000000000000000000000000022d473030f116ddee9f6b43ac78ba3ffffffffffffffffffffffffffffffffffffffffffffffffffffffffffffffff",
        "nonce": "0xb4",
        "chainId": "0xaa36a7"
      },
      "additionalContracts": [],
      "isFixedGasLimit": false
    },
    {
      "hash": "0xe5161818a783762ebd9b22f88e835550b05efed1617b7034fd62d08560e9e7a7",
      "transactionType": "CALL",
      "contractName": null,
      "contractAddress": "0x000000000022d473030f116ddee9f6b43ac78ba3",
      "function": "approve(address,address,uint160,uint48)",
      "arguments": [
        "0x08210F9170F89Ab7658F0B5E3fF39b0E03C594D4",
        "0x429ba70129df741B2Ca2a85BC3A2a3328e5c09b4",
        "1461501637330902918203684832716283019655932542975",
        "281474976710655"
      ],
      "transaction": {
        "from": "0xb70649baf7a93eeb95e3946b3a82f8f312477d2b",
        "to": "0x000000000022d473030f116ddee9f6b43ac78ba3",
        "gas": "0x96a0",
        "value": "0x0",
        "input": "0x87517c4500000000000000000000000008210f9170f89ab7658f0b5e3ff39b0e03c594d4000000000000000000000000429ba70129df741b2ca2a85bc3a2a3328e5c09b4000000000000000000000000ffffffffffffffffffffffffffffffffffffffff0000000000000000000000000000000000000000000000000000ffffffffffff",
        "nonce": "0xb5",
        "chainId": "0xaa36a7"
      },
      "additionalContracts": [],
      "isFixedGasLimit": false
    },
    {
      "hash": "0x67975ad86322ce9e835edee30d9aca3f6a5bf80be15ddcc6cb9bba564b9fb051",
      "transactionType": "CALL",
      "contractName": null,
      "contractAddress": "0xb094011eef8e7188cc224a4c9ece9d61f500c68e",
      "function": "approve(address,uint256)",
      "arguments": [
        "0x000000000022D473030F116dDEE9F6B43aC78BA3",
        "115792089237316195423570985008687907853269984665640564039457584007913129639935"
      ],
      "transaction": {
        "from": "0xb70649baf7a93eeb95e3946b3a82f8f312477d2b",
        "to": "0xb094011eef8e7188cc224a4c9ece9d61f500c68e",
        "gas": "0x9330",
        "value": "0x0",
        "input": "0x095ea7b3000000000000000000000000000000000022d473030f116ddee9f6b43ac78ba3ffffffffffffffffffffffffffffffffffffffffffffffffffffffffffffffff",
        "nonce": "0xb6",
        "chainId": "0xaa36a7"
      },
      "additionalContracts": [],
      "isFixedGasLimit": false
    },
    {
      "hash": "0x94c472ffc9898b5f6b77084b8d88cc868f9bca4c73d2100faca2f014943a7ece",
      "transactionType": "CALL",
      "contractName": null,
      "contractAddress": "0x000000000022d473030f116ddee9f6b43ac78ba3",
      "function": "approve(address,address,uint160,uint48)",
      "arguments": [
        "0xB094011EEF8E7188cc224a4C9eCe9D61f500C68e",
        "0x429ba70129df741B2Ca2a85BC3A2a3328e5c09b4",
        "1461501637330902918203684832716283019655932542975",
        "281474976710655"
      ],
      "transaction": {
        "from": "0xb70649baf7a93eeb95e3946b3a82f8f312477d2b",
        "to": "0x000000000022d473030f116ddee9f6b43ac78ba3",
        "gas": "0x9f6c",
        "value": "0x0",
        "input": "0x87517c45000000000000000000000000b094011eef8e7188cc224a4c9ece9d61f500c68e000000000000000000000000429ba70129df741b2ca2a85bc3a2a3328e5c09b4000000000000000000000000ffffffffffffffffffffffffffffffffffffffff0000000000000000000000000000000000000000000000000000ffffffffffff",
        "nonce": "0xb7",
        "chainId": "0xaa36a7"
      },
      "additionalContracts": [],
      "isFixedGasLimit": false
    },
    {
      "hash": "0x0033efb62e43f5de5f8f8db50f0e9211bbcb4c3f329f1234ade214532f13d822",
      "transactionType": "CALL",
      "contractName": null,
      "contractAddress": "0x429ba70129df741b2ca2a85bc3a2a3328e5c09b4",
      "function": "multicall(bytes[])",
      "arguments": [
        "[0xf702040500000000000000000000000008210f9170f89ab7658f0b5e3ff39b0e03c594d4000000000000000000000000b094011eef8e7188cc224a4c9ece9d61f500c68e0000000000000000000000000000000000000000000000000000000000000bb8000000000000000000000000000000000000000000000000000000000000003c000000000000000000000000e3d0b6fb87f227c31c5566cfa56c371d5a328ac0000000000000000000000000000000000000000100000000000000000000000000000000000000000000000000000000000000000000000000000000000000e00000000000000000000000000000000000000000000000000000000000000000, 0xdd46508f00000000000000000000000000000000000000000000000000000000000000400000000000000000000000000000000000000000000000000000000068cec98c0000000000000000000000000000000000000000000000000000000000000400000000000000000000000000000000000000000000000000000000000000004000000000000000000000000000000000000000000000000000000000000000800000000000000000000000000000000000000000000000000000000000000004020d14140000000000000000000000000000000000000000000000000000000000000000000000000000000000000000000000000000000000000000000000040000000000000000000000000000000000000000000000000000000000000080000000000000000000000000000000000000000000000000000000000000024000000000000000000000000000000000000000000000000000000000000002a0000000000000000000000000000000000000000000000000000000000000030000000000000000000000000000000000000000000000000000000000000001a000000000000000000000000008210f9170f89ab7658f0b5e3ff39b0e03c594d4000000000000000000000000b094011eef8e7188cc224a4c9ece9d61f500c68e0000000000000000000000000000000000000000000000000000000000000bb8000000000000000000000000000000000000000000000000000000000000003c000000000000000000000000e3d0b6fb87f227c31c5566cfa56c371d5a328ac0ffffffffffffffffffffffffffffffffffffffffffffffffffffffffffff5038000000000000000000000000000000000000000000000000000000000000afc800000000000000000000000000000000000000000000000000000000005548a700000000000000000000000000000000000000000000000000000000004c4b410000000000000000000000000000000000000000000000004563918244f40001000000000000000000000000b70649baf7a93eeb95e3946b3a82f8f312477d2b00000000000000000000000000000000000000000000000000000000000001800000000000000000000000000000000000000000000000000000000000000000000000000000000000000000000000000000000000000000000000000000004000000000000000000000000008210f9170f89ab7658f0b5e3ff39b0e03c594d4000000000000000000000000b094011eef8e7188cc224a4c9ece9d61f500c68e000000000000000000000000000000000000000000000000000000000000004000000000000000000000000008210f9170f89ab7658f0b5e3ff39b0e03c594d4000000000000000000000000b70649baf7a93eeb95e3946b3a82f8f312477d2b0000000000000000000000000000000000000000000000000000000000000040000000000000000000000000b094011eef8e7188cc224a4c9ece9d61f500c68e000000000000000000000000b70649baf7a93eeb95e3946b3a82f8f312477d2b]"
      ],
      "transaction": {
        "from": "0xb70649baf7a93eeb95e3946b3a82f8f312477d2b",
        "to": "0x429ba70129df741b2ca2a85bc3a2a3328e5c09b4",
        "gas": "0x5e50b",
        "value": "0x0",
        "input": "0xac9650d800000000000000000000000000000000000000000000000000000000000000200000000000000000000000000000000000000000000000000000000000000002000000000000000000000000000000000000000000000000000000000000004000000000000000000000000000000000000000000000000000000000000001800000000000000000000000000000000000000000000000000000000000000104f702040500000000000000000000000008210f9170f89ab7658f0b5e3ff39b0e03c594d4000000000000000000000000b094011eef8e7188cc224a4c9ece9d61f500c68e0000000000000000000000000000000000000000000000000000000000000bb8000000000000000000000000000000000000000000000000000000000000003c000000000000000000000000e3d0b6fb87f227c31c5566cfa56c371d5a328ac0000000000000000000000000000000000000000100000000000000000000000000000000000000000000000000000000000000000000000000000000000000e00000000000000000000000000000000000000000000000000000000000000000000000000000000000000000000000000000000000000000000000000000000000000000000000000000000000000000000000000000000000000464dd46508f00000000000000000000000000000000000000000000000000000000000000400000000000000000000000000000000000000000000000000000000068cec98c0000000000000000000000000000000000000000000000000000000000000400000000000000000000000000000000000000000000000000000000000000004000000000000000000000000000000000000000000000000000000000000000800000000000000000000000000000000000000000000000000000000000000004020d14140000000000000000000000000000000000000000000000000000000000000000000000000000000000000000000000000000000000000000000000040000000000000000000000000000000000000000000000000000000000000080000000000000000000000000000000000000000000000000000000000000024000000000000000000000000000000000000000000000000000000000000002a0000000000000000000000000000000000000000000000000000000000000030000000000000000000000000000000000000000000000000000000000000001a000000000000000000000000008210f9170f89ab7658f0b5e3ff39b0e03c594d4000000000000000000000000b094011eef8e7188cc224a4c9ece9d61f500c68e0000000000000000000000000000000000000000000000000000000000000bb8000000000000000000000000000000000000000000000000000000000000003c000000000000000000000000e3d0b6fb87f227c31c5566cfa56c371d5a328ac0ffffffffffffffffffffffffffffffffffffffffffffffffffffffffffff5038000000000000000000000000000000000000000000000000000000000000afc800000000000000000000000000000000000000000000000000000000005548a700000000000000000000000000000000000000000000000000000000004c4b410000000000000000000000000000000000000000000000004563918244f40001000000000000000000000000b70649baf7a93eeb95e3946b3a82f8f312477d2b00000000000000000000000000000000000000000000000000000000000001800000000000000000000000000000000000000000000000000000000000000000000000000000000000000000000000000000000000000000000000000000004000000000000000000000000008210f9170f89ab7658f0b5e3ff39b0e03c594d4000000000000000000000000b094011eef8e7188cc224a4c9ece9d61f500c68e000000000000000000000000000000000000000000000000000000000000004000000000000000000000000008210f9170f89ab7658f0b5e3ff39b0e03c594d4000000000000000000000000b70649baf7a93eeb95e3946b3a82f8f312477d2b0000000000000000000000000000000000000000000000000000000000000040000000000000000000000000b094011eef8e7188cc224a4c9ece9d61f500c68e000000000000000000000000b70649baf7a93eeb95e3946b3a82f8f312477d2b00000000000000000000000000000000000000000000000000000000",
        "nonce": "0xb8",
        "chainId": "0xaa36a7"
      },
      "additionalContracts": [],
      "isFixedGasLimit": false
    }
  ],
  "receipts": [
    {
      "status": "0x1",
      "cumulativeGasUsed": "0x156f07a",
      "logs": [
        {
          "address": "0x08210f9170f89ab7658f0b5e3ff39b0e03c594d4",
          "topics": [
            "0x8c5be1e5ebec7d5bd14f71427d1e84f3dd0314c0f7b2291e5b200ac8c7c3b925",
            "0x000000000000000000000000b70649baf7a93eeb95e3946b3a82f8f312477d2b",
            "0x000000000000000000000000000000000022d473030f116ddee9f6b43ac78ba3"
          ],
          "data": "0xffffffffffffffffffffffffffffffffffffffffffffffffffffffffffffffff",
          "blockHash": "0x8f384ddb46769d2b6eb31fd8635c6f394e1e7d8758c84c1c63eec89e5d288795",
          "blockNumber": "0x8d0799",
          "blockTimestamp": "0x68cebbac",
          "transactionHash": "0x40de719df08bacfb553e1d47b5b743eecfd5190290db006771926b6e6cfa371d",
          "transactionIndex": "0x7f",
          "logIndex": "0xa3",
          "removed": false
        }
      ],
      "logsBloom": "0x00000000000000000000000000000000000000000000000000000000000000000000000000000000000000000000000000000000800000000000000000200000000000000400000000004000000000000000000000000800000000000000000000000000000000000000040000080000000000000000000000000000000000000000000000000000000000000000000000000000000000000000000000000000020000000000000000000000000000000000000000002000000000000000000040000000000000000000000000000000000000000000000000000200000000000010000000000000000000000000000000000000000000000000000000000000",
      "type": "0x2",
      "transactionHash": "0x40de719df08bacfb553e1d47b5b743eecfd5190290db006771926b6e6cfa371d",
      "transactionIndex": "0x7f",
      "blockHash": "0x8f384ddb46769d2b6eb31fd8635c6f394e1e7d8758c84c1c63eec89e5d288795",
      "blockNumber": "0x8d0799",
      "gasUsed": "0x96e1",
      "effectiveGasPrice": "0x10c84f",
      "from": "0xb70649baf7a93eeb95e3946b3a82f8f312477d2b",
      "to": "0x08210f9170f89ab7658f0b5e3ff39b0e03c594d4",
      "contractAddress": null
    },
    {
      "status": "0x1",
      "cumulativeGasUsed": "0x1575d88",
      "logs": [
        {
          "address": "0x000000000022d473030f116ddee9f6b43ac78ba3",
          "topics": [
            "0xda9fa7c1b00402c17d0161b249b1ab8bbec047c5a52207b9c112deffd817036b",
            "0x000000000000000000000000b70649baf7a93eeb95e3946b3a82f8f312477d2b",
            "0x00000000000000000000000008210f9170f89ab7658f0b5e3ff39b0e03c594d4",
            "0x000000000000000000000000429ba70129df741b2ca2a85bc3a2a3328e5c09b4"
          ],
          "data": "0x000000000000000000000000ffffffffffffffffffffffffffffffffffffffff0000000000000000000000000000000000000000000000000000ffffffffffff",
          "blockHash": "0x8f384ddb46769d2b6eb31fd8635c6f394e1e7d8758c84c1c63eec89e5d288795",
          "blockNumber": "0x8d0799",
          "blockTimestamp": "0x68cebbac",
          "transactionHash": "0xe5161818a783762ebd9b22f88e835550b05efed1617b7034fd62d08560e9e7a7",
          "transactionIndex": "0x80",
          "logIndex": "0xa4",
          "removed": false
        }
      ],
      "logsBloom": "0x00010000000000000000000000000000000000000000000000000000000000000000000000000040080400000000000000000000000000000000000000080000000000000000000000000000000000000000000000000000000000000000000000000000000000000000000000080000000000000000000000000800000000000020000000000000000000000000000000000000000000000000000000000000000000000000000000000000000000000040000000002000000000080000000000000000000000000000000000000000000000000000000040000200000000000000000000000000000000000000000000000000000000000000000400000400",
      "type": "0x2",
      "transactionHash": "0xe5161818a783762ebd9b22f88e835550b05efed1617b7034fd62d08560e9e7a7",
      "transactionIndex": "0x80",
      "blockHash": "0x8f384ddb46769d2b6eb31fd8635c6f394e1e7d8758c84c1c63eec89e5d288795",
      "blockNumber": "0x8d0799",
      "gasUsed": "0x6d0e",
      "effectiveGasPrice": "0x10c84f",
      "from": "0xb70649baf7a93eeb95e3946b3a82f8f312477d2b",
      "to": "0x000000000022d473030f116ddee9f6b43ac78ba3",
      "contractAddress": null
    },
    {
      "status": "0x1",
      "cumulativeGasUsed": "0x157c818",
      "logs": [
        {
          "address": "0xb094011eef8e7188cc224a4c9ece9d61f500c68e",
          "topics": [
            "0x8c5be1e5ebec7d5bd14f71427d1e84f3dd0314c0f7b2291e5b200ac8c7c3b925",
            "0x000000000000000000000000b70649baf7a93eeb95e3946b3a82f8f312477d2b",
            "0x000000000000000000000000000000000022d473030f116ddee9f6b43ac78ba3"
          ],
          "data": "0xffffffffffffffffffffffffffffffffffffffffffffffffffffffffffffffff",
          "blockHash": "0x8f384ddb46769d2b6eb31fd8635c6f394e1e7d8758c84c1c63eec89e5d288795",
          "blockNumber": "0x8d0799",
          "blockTimestamp": "0x68cebbac",
          "transactionHash": "0x67975ad86322ce9e835edee30d9aca3f6a5bf80be15ddcc6cb9bba564b9fb051",
          "transactionIndex": "0x81",
          "logIndex": "0xa5",
          "removed": false
        }
      ],
      "logsBloom": "0x00000000000000000001000000000000000000000000000000000000000000000000000000000000000000000000000000000000800000000000000000200000000000000000000000004000000000000000000000000810000000000000000000000000000000000000000000080000000000000000000000000000000000000000000000000000000000000000000000000000000000000000000040000000020000000000000000000000000000000000000000002000000000000000000000000000000000000000000000000000000000000000000000000200000000000010000000000000000000000000000000000000000000000000000000000000",
      "type": "0x2",
      "transactionHash": "0x67975ad86322ce9e835edee30d9aca3f6a5bf80be15ddcc6cb9bba564b9fb051",
      "transactionIndex": "0x81",
      "blockHash": "0x8f384ddb46769d2b6eb31fd8635c6f394e1e7d8758c84c1c63eec89e5d288795",
      "blockNumber": "0x8d0799",
      "gasUsed": "0x6a90",
      "effectiveGasPrice": "0x10c84f",
      "from": "0xb70649baf7a93eeb95e3946b3a82f8f312477d2b",
      "to": "0xb094011eef8e7188cc224a4c9ece9d61f500c68e",
      "contractAddress": null
    },
    {
      "status": "0x1",
      "cumulativeGasUsed": "0x158351a",
      "logs": [
        {
          "address": "0x000000000022d473030f116ddee9f6b43ac78ba3",
          "topics": [
            "0xda9fa7c1b00402c17d0161b249b1ab8bbec047c5a52207b9c112deffd817036b",
            "0x000000000000000000000000b70649baf7a93eeb95e3946b3a82f8f312477d2b",
            "0x000000000000000000000000b094011eef8e7188cc224a4c9ece9d61f500c68e",
            "0x000000000000000000000000429ba70129df741b2ca2a85bc3a2a3328e5c09b4"
          ],
          "data": "0x000000000000000000000000ffffffffffffffffffffffffffffffffffffffff0000000000000000000000000000000000000000000000000000ffffffffffff",
          "blockHash": "0x8f384ddb46769d2b6eb31fd8635c6f394e1e7d8758c84c1c63eec89e5d288795",
          "blockNumber": "0x8d0799",
          "blockTimestamp": "0x68cebbac",
          "transactionHash": "0x94c472ffc9898b5f6b77084b8d88cc868f9bca4c73d2100faca2f014943a7ece",
          "transactionIndex": "0x82",
          "logIndex": "0xa6",
          "removed": false
        }
      ],
      "logsBloom": "0x00010000000000000000000000000000000000000000000000000000000000000000000000000040080000000000000000000000000000000000000000080000000000000000000000000000000000000000000000000000000000000000000000000000000000000000000000080000000000000000000000000800000000000020800000000000000000000000000000000000000000000000000000000000000000000000000000000000000000000000000000002000000000080000000000000000000000000000000000002000000000000000000040000200000000000000000000000000000000000000000000000000004000000000000000000400",
      "type": "0x2",
      "transactionHash": "0x94c472ffc9898b5f6b77084b8d88cc868f9bca4c73d2100faca2f014943a7ece",
      "transactionIndex": "0x82",
      "blockHash": "0x8f384ddb46769d2b6eb31fd8635c6f394e1e7d8758c84c1c63eec89e5d288795",
      "blockNumber": "0x8d0799",
      "gasUsed": "0x6d02",
      "effectiveGasPrice": "0x10c84f",
      "from": "0xb70649baf7a93eeb95e3946b3a82f8f312477d2b",
      "to": "0x000000000022d473030f116ddee9f6b43ac78ba3",
      "contractAddress": null
    },
    {
      "status": "0x1",
      "cumulativeGasUsed": "0x15c79a0",
      "logs": [
        {
          "address": "0x429ba70129df741b2ca2a85bc3a2a3328e5c09b4",
          "topics": [
            "0xddf252ad1be2c89b69c2b068fc378daa952ba7f163c4a11628f55a4df523b3ef",
            "0x0000000000000000000000000000000000000000000000000000000000000000",
            "0x000000000000000000000000b70649baf7a93eeb95e3946b3a82f8f312477d2b",
            "0x00000000000000000000000000000000000000000000000000000000000043aa"
          ],
          "data": "0x",
          "blockHash": "0x8f384ddb46769d2b6eb31fd8635c6f394e1e7d8758c84c1c63eec89e5d288795",
          "blockNumber": "0x8d0799",
          "blockTimestamp": "0x68cebbac",
          "transactionHash": "0x0033efb62e43f5de5f8f8db50f0e9211bbcb4c3f329f1234ade214532f13d822",
          "transactionIndex": "0x83",
          "logIndex": "0xa7",
          "removed": false
        },
        {
          "address": "0xe03a1074c86cfedd5c142c4f04f1a1536e203543",
          "topics": [
            "0xf208f4912782fd25c7f114ca3723a2d5dd6f3bcc3ac8db5af63baa85f711d5ec",
            "0x178181150d5bc6a4e49c4c7edbbf775e71584e4a3859e52044c567e96dc2dab9",
            "0x000000000000000000000000429ba70129df741b2ca2a85bc3a2a3328e5c09b4"
          ],
          "data": "0xffffffffffffffffffffffffffffffffffffffffffffffffffffffffffff5038000000000000000000000000000000000000000000000000000000000000afc800000000000000000000000000000000000000000000000000000000005548a700000000000000000000000000000000000000000000000000000000000043aa",
          "blockHash": "0x8f384ddb46769d2b6eb31fd8635c6f394e1e7d8758c84c1c63eec89e5d288795",
          "blockNumber": "0x8d0799",
          "blockTimestamp": "0x68cebbac",
          "transactionHash": "0x0033efb62e43f5de5f8f8db50f0e9211bbcb4c3f329f1234ade214532f13d822",
          "transactionIndex": "0x83",
          "logIndex": "0xa8",
          "removed": false
        },
        {
          "address": "0x08210f9170f89ab7658f0b5e3ff39b0e03c594d4",
          "topics": [
            "0xddf252ad1be2c89b69c2b068fc378daa952ba7f163c4a11628f55a4df523b3ef",
            "0x000000000000000000000000b70649baf7a93eeb95e3946b3a82f8f312477d2b",
            "0x000000000000000000000000e03a1074c86cfedd5c142c4f04f1a1536e203543"
          ],
          "data": "0x00000000000000000000000000000000000000000000000000000000004c4b40",
          "blockHash": "0x8f384ddb46769d2b6eb31fd8635c6f394e1e7d8758c84c1c63eec89e5d288795",
          "blockNumber": "0x8d0799",
          "blockTimestamp": "0x68cebbac",
          "transactionHash": "0x0033efb62e43f5de5f8f8db50f0e9211bbcb4c3f329f1234ade214532f13d822",
          "transactionIndex": "0x83",
          "logIndex": "0xa9",
          "removed": false
        },
        {
          "address": "0xb094011eef8e7188cc224a4c9ece9d61f500c68e",
          "topics": [
            "0xddf252ad1be2c89b69c2b068fc378daa952ba7f163c4a11628f55a4df523b3ef",
            "0x000000000000000000000000b70649baf7a93eeb95e3946b3a82f8f312477d2b",
            "0x000000000000000000000000e03a1074c86cfedd5c142c4f04f1a1536e203543"
          ],
          "data": "0x00000000000000000000000000000000000000000000000000000000004c4b40",
          "blockHash": "0x8f384ddb46769d2b6eb31fd8635c6f394e1e7d8758c84c1c63eec89e5d288795",
          "blockNumber": "0x8d0799",
          "blockTimestamp": "0x68cebbac",
          "transactionHash": "0x0033efb62e43f5de5f8f8db50f0e9211bbcb4c3f329f1234ade214532f13d822",
          "transactionIndex": "0x83",
          "logIndex": "0xaa",
          "removed": false
        }
      ],
      "logsBloom": "0x00000000000000000001001000000000000000000000000000000000080000000000000000000040080000000100000000000100000000000010000000000000000000000440000000000008000000000000000000000010000000000000000000000000020000000000040080080800000000000000100000000810000000008000000001000000000010000000000000000000000000000000000040000000000004000000000000000000000000000000000000402000000000000000000040000002000000000000000000000000000020000000000000001200000020401000000000000000000000000000000004000000000000000000000000000000",
      "type": "0x2",
      "transactionHash": "0x0033efb62e43f5de5f8f8db50f0e9211bbcb4c3f329f1234ade214532f13d822",
      "transactionIndex": "0x83",
      "blockHash": "0x8f384ddb46769d2b6eb31fd8635c6f394e1e7d8758c84c1c63eec89e5d288795",
      "blockNumber": "0x8d0799",
      "gasUsed": "0x44486",
      "effectiveGasPrice": "0x10c84f",
      "from": "0xb70649baf7a93eeb95e3946b3a82f8f312477d2b",
      "to": "0x429ba70129df741b2ca2a85bc3a2a3328e5c09b4",
      "contractAddress": null
    }
  ],
  "libraries": [],
  "pending": [],
  "returns": {},
  "timestamp": 1758378926,
  "chain": 11155111,
  "commit": "b32a83f"
}